Archive member included because of file (symbol)

C:/WinAVR/bin/../lib/gcc/avr/3.4.6/../../../../avr/lib/avr5\libm.a(addsf3.o)
                              fc.o (__addsf3)
C:/WinAVR/bin/../lib/gcc/avr/3.4.6/../../../../avr/lib/avr5\libm.a(addsf3x.o)
                              C:/WinAVR/bin/../lib/gcc/avr/3.4.6/../../../../avr/lib/avr5\libm.a(addsf3.o) (__addsf3x)
C:/WinAVR/bin/../lib/gcc/avr/3.4.6/../../../../avr/lib/avr5\libm.a(fixunssfsi.o)
                              fc.o (__fixunssfsi)
C:/WinAVR/bin/../lib/gcc/avr/3.4.6/../../../../avr/lib/avr5\libm.a(floatsisf.o)
                              fc.o (__floatsisf)
C:/WinAVR/bin/../lib/gcc/avr/3.4.6/../../../../avr/lib/avr5\libm.a(fp_inf.o)
                              C:/WinAVR/bin/../lib/gcc/avr/3.4.6/../../../../avr/lib/avr5\libm.a(addsf3x.o) (__fp_inf)
C:/WinAVR/bin/../lib/gcc/avr/3.4.6/../../../../avr/lib/avr5\libm.a(fp_nan.o)
                              C:/WinAVR/bin/../lib/gcc/avr/3.4.6/../../../../avr/lib/avr5\libm.a(addsf3x.o) (__fp_nan)
C:/WinAVR/bin/../lib/gcc/avr/3.4.6/../../../../avr/lib/avr5\libm.a(fp_pscA.o)
                              C:/WinAVR/bin/../lib/gcc/avr/3.4.6/../../../../avr/lib/avr5\libm.a(addsf3x.o) (__fp_pscA)
C:/WinAVR/bin/../lib/gcc/avr/3.4.6/../../../../avr/lib/avr5\libm.a(fp_pscB.o)
                              C:/WinAVR/bin/../lib/gcc/avr/3.4.6/../../../../avr/lib/avr5\libm.a(addsf3x.o) (__fp_pscB)
C:/WinAVR/bin/../lib/gcc/avr/3.4.6/../../../../avr/lib/avr5\libm.a(fp_round.o)
                              C:/WinAVR/bin/../lib/gcc/avr/3.4.6/../../../../avr/lib/avr5\libm.a(addsf3.o) (__fp_round)
C:/WinAVR/bin/../lib/gcc/avr/3.4.6/../../../../avr/lib/avr5\libm.a(fp_split3.o)
                              C:/WinAVR/bin/../lib/gcc/avr/3.4.6/../../../../avr/lib/avr5\libm.a(addsf3x.o) (__fp_split3)
C:/WinAVR/bin/../lib/gcc/avr/3.4.6/../../../../avr/lib/avr5\libm.a(fp_zero.o)
                              C:/WinAVR/bin/../lib/gcc/avr/3.4.6/../../../../avr/lib/avr5\libm.a(addsf3x.o) (__fp_zero)
libfc1284.a(libfc.o)          hottmenu.o (HoTTBlink)
C:/WinAVR/lib/gcc/avr/3.4.6/avr5\libgcc.a(_mulsi3.o)
                              uart.o (__mulsi3)
C:/WinAVR/lib/gcc/avr/3.4.6/avr5\libgcc.a(_udivmodqi4.o)
                              main.o (__udivmodqi4)
C:/WinAVR/lib/gcc/avr/3.4.6/avr5\libgcc.a(_udivmodhi4.o)
                              main.o (__udivmodhi4)
C:/WinAVR/lib/gcc/avr/3.4.6/avr5\libgcc.a(_divmodhi4.o)
                              main.o (__divmodhi4)
C:/WinAVR/lib/gcc/avr/3.4.6/avr5\libgcc.a(_udivmodsi4.o)
                              libfc1284.a(libfc.o) (__udivmodsi4)
C:/WinAVR/lib/gcc/avr/3.4.6/avr5\libgcc.a(_divmodsi4.o)
                              uart.o (__divmodsi4)
C:/WinAVR/lib/gcc/avr/3.4.6/avr5\libgcc.a(_prologue.o)
                              uart.o (__prologue_saves__)
C:/WinAVR/lib/gcc/avr/3.4.6/avr5\libgcc.a(_epilogue.o)
                              uart.o (__epilogue_restores__)
C:/WinAVR/lib/gcc/avr/3.4.6/avr5\libgcc.a(_exit.o)
                              C:/WinAVR/bin/../lib/gcc/avr/3.4.6/../../../../avr/lib/avr5/crtm1284p.o (exit)
C:/WinAVR/lib/gcc/avr/3.4.6/avr5\libgcc.a(_tablejump.o)
                              analog.o (__tablejump2__)
C:/WinAVR/lib/gcc/avr/3.4.6/avr5\libgcc.a(_clear_bss.o)
                              main.o (__do_clear_bss)
C:/WinAVR/bin/../lib/gcc/avr/3.4.6/../../../../avr/lib/avr5\libc.a(memcpy_P.o)
                              uart.o (memcpy_P)
C:/WinAVR/bin/../lib/gcc/avr/3.4.6/../../../../avr/lib/avr5\libc.a(memchr.o)
                              libfc1284.a(libfc.o) (memchr)
C:/WinAVR/bin/../lib/gcc/avr/3.4.6/../../../../avr/lib/avr5\libc.a(memcpy.o)
                              libfc1284.a(libfc.o) (memcpy)
C:/WinAVR/bin/../lib/gcc/avr/3.4.6/../../../../avr/lib/avr5\libc.a(eerd_block.o)
                              eeprom.o (__eerd_block)
C:/WinAVR/bin/../lib/gcc/avr/3.4.6/../../../../avr/lib/avr5\libc.a(eerd_word.o)
                              eeprom.o (__eerd_word)
C:/WinAVR/bin/../lib/gcc/avr/3.4.6/../../../../avr/lib/avr5\libc.a(eewr_block.o)
                              eeprom.o (__eewr_block)
C:/WinAVR/bin/../lib/gcc/avr/3.4.6/../../../../avr/lib/avr5\libc.a(eewr_word.o)
                              eeprom.o (__eewr_word)

Allocating common symbols
Common symbol       size              file

USART1_EX_TxBuffer  0x20              libfc1284.a(libfc.o)
KopplungsteilNickRoll
                    0x2               fc.o
SPITransferCompleted
                    0x1               spi.o
KopplungsteilRollNick
                    0x2               fc.o
ChannelYaw          0x2               rc.o
RequiredMotors      0x1               eeprom.o
Parameter_Servo4    0x1               fc.o
GPSInfo             0x8               spi.o
EE_Parameter        0x8f              eeprom.o
DiffRoll            0x2               fc.o
MesswertRoll        0x2               fc.o
ElectricAirPacket   0x2c              hottmenu.o
TrimNick            0x2               fc.o
Parameter_NaviGpsP  0x1               fc.o
ChannelRoll         0x2               rc.o
ErsatzKompassInGrad
                    0x2               fc.o
GyroFaktorGier      0x1               fc.o
HoTTGeneral         0x2c              hottmenu.o
Parameter_MaximumAltitude
                    0x1               fc.o
TrimRoll            0x2               fc.o
SPI_TX_Buffer       0x2               spi.o
MesswertNick        0x2               fc.o
NC_Version          0x5               spi.o
SPI_BufferIndex     0x1               spi.o
Aktuell_ay          0x2               analog.o
ToNaviCtrl          0x22              spi.o
Data3D              0xe               uart.o
Parameter_NaviGpsI  0x1               fc.o
Capacity            0x7               capacity.o
Timer3D             0x2               uart.o
SPI_ChkSum          0x1               spi.o
RohMesswertRoll     0x2               fc.o
MIN_GAS             0x1               fc.o
HottKeyboard        0x1               libfc1284.a(libfc.o)
CosAttitude         0x2               fc.o
Channels            0x1               rc.o
Debug_Timer         0x2               uart.o
RohMesswertNick     0x2               fc.o
IntegralFaktorGier  0x1               fc.o
fdknerTjg5i83th589v44
                    0x6               libfc1284.a(libfc.o)
DiffNick            0x2               fc.o
ExternalControl     0x7               uart.o
MittelIntegralNick  0x4               fc.o
Parameter_Servo3    0x1               fc.o
VersionInfo         0xa               uart.o
WPL_Name            0xa               hottmenu.o
MotorTest           0x10              uart.o
SPI_RxBufferIndex   0x1               spi.o
NaviAccNick         0x2               fc.o
HoTT_RequestedSensor
                    0x1               libfc1284.a(libfc.o)
Parameter_J16Timing
                    0x1               fc.o
MittelIntegralRoll  0x4               fc.o
Parameter_ExtraConfig
                    0x1               fc.o
ChannelNick         0x2               rc.o
VarioPacket         0x2c              hottmenu.o
Parameter_Servo5    0x1               fc.o
SPI_RxDataValid     0x1               spi.o
MlinkData           0x24              M-Link.o
PPM_in              0x46              rc.o
WinkelOut           0x8               uart.o
IntegralFaktor      0x1               fc.o
Aktuell_az          0x2               analog.o
RedundantMotor      0x50              twimaster.o
FromNaviCtrl        0x20              spi.o
StartLuftdruck      0x4               analog.o
_printf_P           0x2               main.o
tmp_motorwert       0x20              fc.o
Kompass_Timer       0x2               uart.o
RxdBuffer           0xdc              uart.o
Mixer               0x4e              eeprom.o
HoTT_TextPointer    0x1               libfc1284.a(libfc.o)
Display_Timer       0x2               uart.o
Parameter_NaviGpsA  0x1               fc.o
ASCIIPacket         0xac              hottmenu.o
TxdBuffer           0xdc              uart.o
SPI_Buffer          0x20              spi.o
Parameter_GlobalConfig
                    0x1               fc.o
Aktuell_Nick        0x2               analog.o
Aktuell_Roll        0x2               analog.o
IlIlIlIIIIIIIlIllllll
                    0x23              libfc1284.a(libfc.o)
Aktuell_ax          0x2               analog.o
Parameter_NaviWindCorrection
                    0x1               fc.o
s                   0x1               fc.o
h                   0x1               fc.o
Mittelwert_AccNick  0x2               fc.o
Parameter_NaviSpeedCompensation
                    0x1               fc.o
DebugOut            0x42              uart.o
DruckOffsetSetting  0x1               analog.o
ChannelGas          0x2               rc.o
FromNaviCtrl_Value  0x5               spi.o
BLConfig            0x8               twimaster.o
Motor               0xf0              twimaster.o
Aktuell_Gier        0x2               analog.o
Parameter_J17Timing
                    0x1               fc.o
GPSPacket           0x2c              hottmenu.o
tim_main            0x2               timer0.o
MAX_GAS             0x1               fc.o
CompassCorrected    0x2               fc.o
MesswertGier        0x2               fc.o
Parameter_J16Bitmask
                    0x1               fc.o
ConfirmFrame        0x1               uart.o
NaviAccRoll         0x2               fc.o
GyroFaktor          0x1               fc.o
m                   0x1               fc.o
ErsatzKompass       0x4               fc.o
Mittelwert_AccRoll  0x2               fc.o
Parameter_NaviGpsGain
                    0x1               fc.o
fgfdogjWEti45e9tjh394
                    0x4               libfc1284.a(libfc.o)
DisplayBuff         0x50              menu.o
PPM_diff            0x46              rc.o
sBusBuffer          0x19              sbus.o
Parameter_ExternalControl
                    0x1               fc.o
Parameter_J17Bitmask
                    0x1               fc.o
Parameter_NaviGpsD  0x1               fc.o

Memory Configuration

Name             Origin             Length             Attributes
text             0x00000000         0x00020000         xr
data             0x00800060         0x0000ffa0         rw !x
eeprom           0x00810000         0x00010000         rw !x
fuse             0x00820000         0x00000400         rw !x
lock             0x00830000         0x00000400         rw !x
signature        0x00840000         0x00000400         rw !x
*default*        0x00000000         0xffffffff

Linker script and memory map

Address of section .data set to 0x800100
LOAD C:/WinAVR/bin/../lib/gcc/avr/3.4.6/../../../../avr/lib/avr5/crtm1284p.o
LOAD main.o
LOAD uart.o
LOAD timer0.o
LOAD analog.o
LOAD menu.o
LOAD eeprom.o
LOAD twimaster.o
LOAD rc.o
LOAD fc.o
LOAD GPS.o
LOAD spi.o
LOAD led.o
LOAD Spektrum.o
LOAD mymath.o
LOAD jetimenu.o
LOAD capacity.o
LOAD debug.o
LOAD hottmenu.o
LOAD sbus.o
LOAD user_receiver.o
LOAD M-Link.o
LOAD jeti_ex.o
LOAD isqrt.o
LOAD C:/WinAVR/bin/../lib/gcc/avr/3.4.6/../../../../avr/lib/avr5\libm.a
LOAD libfc1284.a
LOAD C:/WinAVR/lib/gcc/avr/3.4.6/avr5\libgcc.a
LOAD C:/WinAVR/bin/../lib/gcc/avr/3.4.6/../../../../avr/lib/avr5\libc.a
LOAD C:/WinAVR/lib/gcc/avr/3.4.6/avr5\libgcc.a

.hash
 *(.hash)

.dynsym
 *(.dynsym)

.dynstr
 *(.dynstr)

.gnu.version
 *(.gnu.version)

.gnu.version_d
 *(.gnu.version_d)

.gnu.version_r
 *(.gnu.version_r)

.rel.init
 *(.rel.init)

.rela.init
 *(.rela.init)

.rel.text
 *(.rel.text)
 *(.rel.text.*)
 *(.rel.gnu.linkonce.t*)

.rela.text
 *(.rela.text)
 *(.rela.text.*)
 *(.rela.gnu.linkonce.t*)

.rel.fini
 *(.rel.fini)

.rela.fini
 *(.rela.fini)

.rel.rodata
 *(.rel.rodata)
 *(.rel.rodata.*)
 *(.rel.gnu.linkonce.r*)

.rela.rodata
 *(.rela.rodata)
 *(.rela.rodata.*)
 *(.rela.gnu.linkonce.r*)

.rel.data
 *(.rel.data)
 *(.rel.data.*)
 *(.rel.gnu.linkonce.d*)

.rela.data
 *(.rela.data)
 *(.rela.data.*)
 *(.rela.gnu.linkonce.d*)

.rel.ctors
 *(.rel.ctors)

.rela.ctors
 *(.rela.ctors)

.rel.dtors
 *(.rel.dtors)

.rela.dtors
 *(.rela.dtors)

.rel.got
 *(.rel.got)

.rela.got
 *(.rela.got)

.rel.bss
 *(.rel.bss)

.rela.bss
 *(.rela.bss)

.rel.plt
 *(.rel.plt)

.rela.plt
 *(.rela.plt)

.text           0x00000000    0x16dc6
 *(.vectors)
 .vectors       0x00000000       0x8c C:/WinAVR/bin/../lib/gcc/avr/3.4.6/../../../../avr/lib/avr5/crtm1284p.o
                0x00000000                __vectors
                0x00000000                __vector_default
 *(.vectors)
 *(.progmem.gcc*)
 .progmem.gcc_sw_table
                0x0000008c       0x24 analog.o
 .progmem.gcc_sw_table
                0x000000b0       0x28 menu.o
 .progmem.gcc_sw_table
                0x000000d8       0x9a hottmenu.o
 .progmem.gcc_sw_table
                0x00000172       0x14 libfc1284.a(libfc.o)
 *(.progmem*)
 .progmem.data  0x00000186      0x151 main.o
 .progmem.data  0x000002d7      0x215 uart.o
                0x000002d7                ANALOG_TEXT
 .progmem.data  0x000004ec        0x2 analog.o
 .progmem.data  0x000004ee      0x4ec menu.o
 .progmem.data  0x000009da       0xa9 eeprom.o
 .progmem.data  0x00000a83       0x3c fc.o
 .progmem.data  0x00000abf       0xb6 mymath.o
                0x00000abf                pgm_sinlookup
 .progmem.data  0x00000b75      0x386 jetimenu.o
                0x00000b75                JetiBox_Menu
 .progmem.data  0x00000efb      0xb01 hottmenu.o
                0x000011e7                BOAT_MODE
                0x00000f49                NC_ERROR_TEXT
                0x00001229                UNDERVOLTAGE
                0x0000123f                MIKROKOPTER
                0x00001213                LANDING
                0x000011e0                SETTING
                0x000011fd                SIMULATION
                0x00000efb                HOTT_ERROR
 .progmem.data  0x000019fc       0x35 jeti_ex.o
                0x000019fc                JETI_CODE
 .progmem.data  0x00001a31      0x17a libfc1284.a(libfc.o)
                0x00001aae                Rec_HoTT
                0x00001a59                Msg1
                0x00001a31                Msg2
                0x00001abe                Rec_Jeti
                0x00001acc                Rec_PPM
                0x00001ab6                Rec_ACT_DSL
                0x00001ac3                Rec_Spektrum
                0x00001aa9                Rec_USER
                0x00001bac                . = ALIGN (0x2)
 *fill*         0x00001bab        0x1 00
                0x00001bac                __trampolines_start = .
 *(.trampolines)
 .trampolines   0x00001bac        0x0 linker stubs
 *(.trampolines*)
                0x00001bac                __trampolines_end = .
 *(.jumptables)
 *(.jumptables*)
 *(.lowtext)
 *(.lowtext*)
                0x00001bac                __ctors_start = .
 *(.ctors)
                0x00001bac                __ctors_end = .
                0x00001bac                __dtors_start = .
 *(.dtors)
                0x00001bac                __dtors_end = .
 SORT(*)(.ctors)
 SORT(*)(.dtors)
 *(.init0)
 .init0         0x00001bac        0x0 C:/WinAVR/bin/../lib/gcc/avr/3.4.6/../../../../avr/lib/avr5/crtm1284p.o
                0x00001bac                __init
 *(.init0)
 *(.init1)
 *(.init1)
 *(.init2)
 .init2         0x00001bac        0xc C:/WinAVR/bin/../lib/gcc/avr/3.4.6/../../../../avr/lib/avr5/crtm1284p.o
 *(.init2)
 *(.init3)
 *(.init3)
 *(.init4)
 .init4         0x00001bb8       0x1a C:/WinAVR/bin/../lib/gcc/avr/3.4.6/../../../../avr/lib/avr5/crtm1284p.o
                0x00001bb8                __do_copy_data
 .init4         0x00001bd2       0x10 C:/WinAVR/lib/gcc/avr/3.4.6/avr5\libgcc.a(_clear_bss.o)
                0x00001bd2                __do_clear_bss
 *(.init4)
 *(.init5)
 .init5         0x00001be2       0x76 libfc1284.a(libfc.o)
                0x00001be2                ndfcvbghs
 *(.init5)
 *(.init6)
 *(.init6)
 *(.init7)
 *(.init7)
 *(.init8)
 *(.init8)
 *(.init9)
 .init9         0x00001c58        0x8 C:/WinAVR/bin/../lib/gcc/avr/3.4.6/../../../../avr/lib/avr5/crtm1284p.o
 *(.init9)
 *(.text)
 .text          0x00001c60        0x4 C:/WinAVR/bin/../lib/gcc/avr/3.4.6/../../../../avr/lib/avr5/crtm1284p.o
                0x00001c60                __vector_1
                0x00001c60                __vector_32
                0x00001c60                __vector_34
                0x00001c60                __bad_interrupt
                0x00001c60                __vector_6
                0x00001c60                __vector_31
                0x00001c60                __vector_3
                0x00001c60                __vector_23
                0x00001c60                __vector_25
                0x00001c60                __vector_11
                0x00001c60                __vector_13
                0x00001c60                __vector_17
                0x00001c60                __vector_19
                0x00001c60                __vector_7
                0x00001c60                __vector_27
                0x00001c60                __vector_5
                0x00001c60                __vector_33
                0x00001c60                __vector_4
                0x00001c60                __vector_2
                0x00001c60                __vector_21
                0x00001c60                __vector_15
                0x00001c60                __vector_29
                0x00001c60                __vector_8
                0x00001c60                __vector_14
                0x00001c60                __vector_10
                0x00001c60                __vector_16
 .text          0x00001c64      0xe0c main.o
                0x00001cda                LipoDetection
                0x00001c88                CalMk3Mag
                0x00001c64                PrintLine
                0x00001ee4                main
 .text          0x00002a70     0x13d4 uart.o
                0x00002a94                __vector_22
                0x00003800                UART_Init
                0x00002faa                BearbeiteRxDaten
                0x00002cfe                AddCRC
                0x0000389c                DatenUebertragung
                0x00002ed6                Decode64
                0x00002a70                CalculateDebugLableCrc
                0x00002d5e                SendOutData
                0x00002b00                __vector_20
                0x000037f0                uart_putchar
 .text          0x00003e44      0xa6e timer0.o
                0x00004014                SetDelay
                0x00004088                TIMER2_Init
                0x000040e6                Timer_Init
                0x0000419a                CalculateServo
                0x00004026                CheckDelay
                0x0000403e                Delay_ms
                0x00004058                Delay_ms_Mess
                0x00004610                __vector_9
                0x00003e44                __vector_18
                0x00004116                CalcNickServoValue
 .text          0x000048b2      0xc68 analog.o
                0x00004a6e                __vector_24
                0x000048be                CalcExpandBaroStep
                0x000048b2                ADC_Init
                0x0000492e                SucheLuftruckOffset
 .text          0x0000551a     0x174e menu.o
                0x0000551a                LcdClear
                0x0000552c                Menu_Putchar
                0x00005546                Menu
 .text          0x00006c68      0xa4e eeprom.o
                0x000071a0                SetActiveParamSet
                0x00006cb2                EEProm_Checksum
                0x000070ae                GetParamByte
                0x00007046                ParamSet_DefaultSet3
                0x00007288                MixerTable_ReadFromEEProm
                0x00006c90                RAM_Checksum
                0x00006d2c                CommonDefaults
                0x000070be                SetParamByte
                0x000070d6                GetParamWord
                0x000070e0                SetParamWord
                0x00007328                MixerTable_Default
                0x000070ea                ParamSet_ReadFromEEProm
                0x000072f0                MixerTable_WriteToEEProm
                0x000071d0                ParamSet_WriteToEEProm
                0x000073f4                SetDefaultParameter
                0x0000747a                ParamSet_Init
                0x000073b6                GetActiveParamSet
                0x00006fda                ParamSet_DefaultSet2
                0x00006f70                ParamSet_DefaultSet1
                0x00006ce2                ParamSet_DefaultStickMapping
 .text          0x000076b6      0xa06 twimaster.o
                0x00007718                I2C_Reset
                0x000076b6                I2C_Init
                0x00007e50                I2C_WriteBLConfig
                0x00007f9c                I2C_ReadBLConfig
                0x0000775c                __vector_26
 .text          0x000080bc      0x29e rc.o
                0x0000812e                __vector_12
                0x000080bc                rc_sum_init
 .text          0x0000835a     0x6156 fc.o
                0x0000835a                CopyDebugValues
                0x0000a342                CalcStickGasHover
                0x00009ccc                GetChannelValue
                0x00009c4c                SendMotorData
                0x00008ec6                Mittelwert
                0x00008536                Piep
                0x000085d4                CalibrierMittelwert
                0x00008742                SetNeutral
                0x0000a3c4                ChannelAssingment
                0x000086c0                StoreNeutralToEeprom
                0x00009d04                ParameterZuordnung
                0x0000a562                MotorRegler
 .text          0x0000e4b0        0x0 GPS.o
 .text          0x0000e4b0      0xb74 spi.o
                0x0000e5de                UpdateSPI_Buffer
                0x0000efca                SPI_StartTransmitPacket
                0x0000e4f2                SPI_TransmitByte
                0x0000e4b0                SPI_MasterInit
 .text          0x0000f024      0x320 led.o
                0x0000f024                LED_Init
                0x0000f042                LED_Update
 .text          0x0000f344      0x3d2 Spektrum.o
                0x0000f3b8                SpektrumUartInit
                0x0000f466                SpektrumParser
                0x0000f344                s_update
 .text          0x0000f716       0x9e mymath.o
                0x0000f716                c_cos_8192
 .text          0x0000f7b4     0x1290 jetimenu.o
                0x00010072                Menu_POINT_SV2
                0x0000fe3e                Menu_AccCal
                0x0000fdc0                Menu_POINT_LD
                0x00010668                Menu_WPL_R2
                0x0000fbc4                Menu_Battery
                0x0000fdea                Menu_POINT_SV
                0x000104b8                Menu_WPL_A2
                0x0000f7b4                Menu_Status
                0x0000fd14                Menu_WPL_A1
                0x0000fe14                Menu_AccCal_Ask
                0x0001083a                Menu_PosInfo
                0x0001028c                Menu_POINT_LD2
                0x0000fc7e                Magnet_Values
                0x0000fd6a                Menu_WPL_R1
                0x0000fabc                Menu_Temperature
                0x00010978                JetiBox_Update
 .text          0x00010a44      0x248 capacity.o
                0x00010ab8                Capacity_Update
                0x00010a72                BL3_Current
                0x00010a44                Capacity_Init
 .text          0x00010c8c        0x0 debug.o
 .text          0x00010c8c     0x3a66 hottmenu.o
                0x00010e18                NC_Fills_HoTT_Telemety
                0x00010d3e                HoTT_Waring
                0x00010d0e                Hott_ClearLine
                0x00010f88                HoTT_Telemety
                0x00010c8c                GetHottestBl
                0x000116dc                HoTT_Menu
                0x00010ebe                BuildHoTT_Vario
 .text          0x000146f2      0x292 sbus.o
                0x000146f2                SbusUartInit
                0x000147a4                SbusParser
                0x000147e8                ProcessSBus
 .text          0x00014984        0x4 user_receiver.o
                0x00014984                User_Receiver_Init
                0x00014986                User_RX_Parser
 .text          0x00014988       0xbe M-Link.o
                0x00014988                MlinkUartInit
                0x000149ee                ProcessMlinkData
                0x0001498e                MlinkParser
 .text          0x00014a46      0x296 jeti_ex.o
                0x00014a46                BuildJeti_Vario
                0x00014b54                JetiEX_Update
 .text          0x00014cdc      0x100 isqrt.o
                0x00014cdc                isqrt32
                0x00014d88                ihypot
                0x00014d46                isqrt16
 .text          0x00014ddc        0x0 C:/WinAVR/bin/../lib/gcc/avr/3.4.6/../../../../avr/lib/avr5\libm.a(addsf3.o)
 .text          0x00014ddc        0x0 C:/WinAVR/bin/../lib/gcc/avr/3.4.6/../../../../avr/lib/avr5\libm.a(addsf3x.o)
 .text          0x00014ddc        0x0 C:/WinAVR/bin/../lib/gcc/avr/3.4.6/../../../../avr/lib/avr5\libm.a(fixunssfsi.o)
 .text          0x00014ddc        0x0 C:/WinAVR/bin/../lib/gcc/avr/3.4.6/../../../../avr/lib/avr5\libm.a(floatsisf.o)
 .text          0x00014ddc        0x0 C:/WinAVR/bin/../lib/gcc/avr/3.4.6/../../../../avr/lib/avr5\libm.a(fp_inf.o)
 .text          0x00014ddc        0x0 C:/WinAVR/bin/../lib/gcc/avr/3.4.6/../../../../avr/lib/avr5\libm.a(fp_nan.o)
 .text          0x00014ddc        0x0 C:/WinAVR/bin/../lib/gcc/avr/3.4.6/../../../../avr/lib/avr5\libm.a(fp_pscA.o)
 .text          0x00014ddc        0x0 C:/WinAVR/bin/../lib/gcc/avr/3.4.6/../../../../avr/lib/avr5\libm.a(fp_pscB.o)
 .text          0x00014ddc        0x0 C:/WinAVR/bin/../lib/gcc/avr/3.4.6/../../../../avr/lib/avr5\libm.a(fp_round.o)
 .text          0x00014ddc        0x0 C:/WinAVR/bin/../lib/gcc/avr/3.4.6/../../../../avr/lib/avr5\libm.a(fp_split3.o)
 .text          0x00014ddc        0x0 C:/WinAVR/bin/../lib/gcc/avr/3.4.6/../../../../avr/lib/avr5\libm.a(fp_zero.o)
 .text          0x00014ddc     0x1ae4 libfc1284.a(libfc.o)
                0x000153c2                JetiEX_CreatePacket
                0x000167d6                __vector_28
                0x0001633e                LIBFC_ReceiverInit
                0x00014e8a                FGRT0589rge90gj459gg4
                0x000164b6                LIBFC_Init
                0x00015ebc                HoTT_Parser
                0x0001514c                LIBFC_JetiBox_Clear
                0x000150a4                FGtj76uzh56z3grEg5t45
                0x0001536e                crc8
                0x00015238                __vector_30
                0x00015cf4                HoTT_Init
                0x0001515e                INiuzBtergGIBuB76T0G5
                0x00015126                LIBFC_JetiBox_Putchar
                0x0001573a                IIllllIllIlllIIlllII
                0x000166bc                LIBFC_Polling
                0x00015cd8                LIBFC_HoTT_SetPos
                0x00016686                LIBFC_CheckSettings
                0x000155fe                a48784362857632195659
                0x000156f6                fgmjgnrtuth587th9rTrw
                0x0001539e                JetiEX_GetLength
                0x00015ce2                LIBFC_HoTT_Clear
                0x000162ac                LIBFC_GetCPUType
                0x00014ddc                fomklkdtn89SFGrsgt9rf
                0x00015698                njkvnfuhgbuzrgezgf483
                0x0001521e                KLNMIOHMUHG76GFGr43r3
                0x00014fbc                DFGeefWEF43tgt5uGreg5
                0x00015cbe                LIBFC_HoTT_Putchar_BLINK
                0x00015718                wqqeRT45jth8g758735h4
                0x00015c9c                LIBFC_HoTT_Putchar_INV
                0x00016304                awokdjwqdjcjuhcuweih
                0x00015140                LIBFC_JetiBox_SetPos
                0x000156c6                lkvgnfdgun57th38rgh84
                0x00015348                update_crc
                0x00015f2e                HoTT_Polling
                0x00015c7c                LIBFC_HoTT_Putchar
                0x00015fae                ACC_AltitudeFusion
 .text          0x000168c0        0x0 C:/WinAVR/lib/gcc/avr/3.4.6/avr5\libgcc.a(_mulsi3.o)
 .text          0x000168c0        0x0 C:/WinAVR/lib/gcc/avr/3.4.6/avr5\libgcc.a(_udivmodqi4.o)
 .text          0x000168c0        0x0 C:/WinAVR/lib/gcc/avr/3.4.6/avr5\libgcc.a(_udivmodhi4.o)
 .text          0x000168c0        0x0 C:/WinAVR/lib/gcc/avr/3.4.6/avr5\libgcc.a(_divmodhi4.o)
 .text          0x000168c0        0x0 C:/WinAVR/lib/gcc/avr/3.4.6/avr5\libgcc.a(_udivmodsi4.o)
 .text          0x000168c0        0x0 C:/WinAVR/lib/gcc/avr/3.4.6/avr5\libgcc.a(_divmodsi4.o)
 .text          0x000168c0        0x0 C:/WinAVR/lib/gcc/avr/3.4.6/avr5\libgcc.a(_prologue.o)
 .text          0x000168c0        0x0 C:/WinAVR/lib/gcc/avr/3.4.6/avr5\libgcc.a(_epilogue.o)
 .text          0x000168c0        0x0 C:/WinAVR/lib/gcc/avr/3.4.6/avr5\libgcc.a(_exit.o)
 .text          0x000168c0        0x0 C:/WinAVR/lib/gcc/avr/3.4.6/avr5\libgcc.a(_tablejump.o)
 .text          0x000168c0        0x0 C:/WinAVR/lib/gcc/avr/3.4.6/avr5\libgcc.a(_clear_bss.o)
 .text          0x000168c0       0x12 C:/WinAVR/bin/../lib/gcc/avr/3.4.6/../../../../avr/lib/avr5\libc.a(memcpy_P.o)
                0x000168c0                memcpy_P
 .text          0x000168d2       0x1a C:/WinAVR/bin/../lib/gcc/avr/3.4.6/../../../../avr/lib/avr5\libc.a(memchr.o)
                0x000168d2                memchr
 .text          0x000168ec       0x12 C:/WinAVR/bin/../lib/gcc/avr/3.4.6/../../../../avr/lib/avr5\libc.a(memcpy.o)
                0x000168ec                memcpy
 .text          0x000168fe       0x4a C:/WinAVR/bin/../lib/gcc/avr/3.4.6/../../../../avr/lib/avr5\libc.a(eerd_block.o)
                0x000168fe                __eerd_block
 .text          0x00016948       0x30 C:/WinAVR/bin/../lib/gcc/avr/3.4.6/../../../../avr/lib/avr5\libc.a(eerd_word.o)
                0x00016948                __eerd_word
 .text          0x00016978       0x44 C:/WinAVR/bin/../lib/gcc/avr/3.4.6/../../../../avr/lib/avr5\libc.a(eewr_block.o)
                0x00016978                __eewr_block
 .text          0x000169bc       0x32 C:/WinAVR/bin/../lib/gcc/avr/3.4.6/../../../../avr/lib/avr5\libc.a(eewr_word.o)
                0x000169bc                __eewr_word
                0x000169ee                . = ALIGN (0x2)
 *(.text.*)
 .text.fplib    0x000169ee        0xa C:/WinAVR/bin/../lib/gcc/avr/3.4.6/../../../../avr/lib/avr5\libm.a(addsf3.o)
                0x000169ee                __subsf3
                0x000169f0                __addsf3
 .text.fplib    0x000169f8       0xc0 C:/WinAVR/bin/../lib/gcc/avr/3.4.6/../../../../avr/lib/avr5\libm.a(addsf3x.o)
                0x00016a12                __addsf3x
 .text.fplib    0x00016ab8       0x58 C:/WinAVR/bin/../lib/gcc/avr/3.4.6/../../../../avr/lib/avr5\libm.a(fixunssfsi.o)
                0x00016ab8                __fixunssfsi
 .text.fplib    0x00016b10       0x7a C:/WinAVR/bin/../lib/gcc/avr/3.4.6/../../../../avr/lib/avr5\libm.a(floatsisf.o)
                0x00016b14                __floatsisf
                0x00016b10                __floatunsisf
 .text.fplib    0x00016b8a        0xc C:/WinAVR/bin/../lib/gcc/avr/3.4.6/../../../../avr/lib/avr5\libm.a(fp_inf.o)
                0x00016b8a                __fp_inf
 .text.fplib    0x00016b96        0x6 C:/WinAVR/bin/../lib/gcc/avr/3.4.6/../../../../avr/lib/avr5\libm.a(fp_nan.o)
                0x00016b96                __fp_nan
 .text.fplib    0x00016b9c        0xe C:/WinAVR/bin/../lib/gcc/avr/3.4.6/../../../../avr/lib/avr5\libm.a(fp_pscA.o)
                0x00016b9c                __fp_pscA
 .text.fplib    0x00016baa        0xe C:/WinAVR/bin/../lib/gcc/avr/3.4.6/../../../../avr/lib/avr5\libm.a(fp_pscB.o)
                0x00016baa                __fp_pscB
 .text.fplib    0x00016bb8       0x22 C:/WinAVR/bin/../lib/gcc/avr/3.4.6/../../../../avr/lib/avr5\libm.a(fp_round.o)
                0x00016bb8                __fp_round
 .text.fplib    0x00016bda       0x44 C:/WinAVR/bin/../lib/gcc/avr/3.4.6/../../../../avr/lib/avr5\libm.a(fp_split3.o)
                0x00016bda                __fp_split3
                0x00016bea                __fp_splitA
 .text.fplib    0x00016c1e        0xe C:/WinAVR/bin/../lib/gcc/avr/3.4.6/../../../../avr/lib/avr5\libm.a(fp_zero.o)
                0x00016c1e                __fp_zero
                0x00016c20                __fp_szero
 .text.libgcc   0x00016c2c       0x3e C:/WinAVR/lib/gcc/avr/3.4.6/avr5\libgcc.a(_mulsi3.o)
                0x00016c2c                __mulsi3
 .text.libgcc   0x00016c6a       0x18 C:/WinAVR/lib/gcc/avr/3.4.6/avr5\libgcc.a(_udivmodqi4.o)
                0x00016c6a                __udivmodqi4
 .text.libgcc   0x00016c82       0x28 C:/WinAVR/lib/gcc/avr/3.4.6/avr5\libgcc.a(_udivmodhi4.o)
                0x00016c82                __udivmodhi4
 .text.libgcc   0x00016caa       0x26 C:/WinAVR/lib/gcc/avr/3.4.6/avr5\libgcc.a(_divmodhi4.o)
                0x00016caa                __divmodhi4
                0x00016caa                _div
 .text.libgcc   0x00016cd0       0x44 C:/WinAVR/lib/gcc/avr/3.4.6/avr5\libgcc.a(_udivmodsi4.o)
                0x00016cd0                __udivmodsi4
 .text.libgcc   0x00016d14       0x36 C:/WinAVR/lib/gcc/avr/3.4.6/avr5\libgcc.a(_divmodsi4.o)
                0x00016d14                __divmodsi4
 .text.libgcc   0x00016d4a       0x38 C:/WinAVR/lib/gcc/avr/3.4.6/avr5\libgcc.a(_prologue.o)
                0x00016d4a                __prologue_saves__
 .text.libgcc   0x00016d82       0x36 C:/WinAVR/lib/gcc/avr/3.4.6/avr5\libgcc.a(_epilogue.o)
                0x00016d82                __epilogue_restores__
 .text.libgcc   0x00016db8        0x0 C:/WinAVR/lib/gcc/avr/3.4.6/avr5\libgcc.a(_exit.o)
 .text.libgcc   0x00016db8        0xc C:/WinAVR/lib/gcc/avr/3.4.6/avr5\libgcc.a(_tablejump.o)
                0x00016dbc                __tablejump__
                0x00016db8                __tablejump2__
 .text.libgcc   0x00016dc4        0x0 C:/WinAVR/lib/gcc/avr/3.4.6/avr5\libgcc.a(_clear_bss.o)
                0x00016dc4                . = ALIGN (0x2)
 *(.fini9)
 .fini9         0x00016dc4        0x0 C:/WinAVR/lib/gcc/avr/3.4.6/avr5\libgcc.a(_exit.o)
                0x00016dc4                exit
                0x00016dc4                _exit
 *(.fini9)
 *(.fini8)
 *(.fini8)
 *(.fini7)
 *(.fini7)
 *(.fini6)
 *(.fini6)
 *(.fini5)
 *(.fini5)
 *(.fini4)
 *(.fini4)
 *(.fini3)
 *(.fini3)
 *(.fini2)
 *(.fini2)
 *(.fini1)
 *(.fini1)
 *(.fini0)
 .fini0         0x00016dc4        0x2 C:/WinAVR/lib/gcc/avr/3.4.6/avr5\libgcc.a(_exit.o)
 *(.fini0)
                0x00016dc6                _etext = .

.data           0x00800100      0x1f4 load address 0x00016dc6
                0x00800100                PROVIDE (__data_start, .)
 *(.data)
 .data          0x00800100        0x0 C:/WinAVR/bin/../lib/gcc/avr/3.4.6/../../../../avr/lib/avr5/crtm1284p.o
 .data          0x00800100        0x5 main.o
                0x00800103                PlatinenVersion
                0x00800102                BattLowVoltageWarning
                0x00800101                ActiveParamSet
                0x00800100                LipoCells
 .data          0x00800105        0x4 uart.o
                0x00800105                MeineSlaveAdresse
                0x00800106                PcZugriff
                0x00800108                UebertragungAbgeschlossen
                0x00800107                DebugTextAnforderung
 .data          0x00800109        0xa timer0.o
                0x0080010d                ServoRollOffset
                0x00800111                CalculateServoSignals
                0x0080010b                BeepMuster
                0x00800109                NickServoValue
                0x0080010f                ServoNickOffset
 .data          0x00800113       0x15 analog.o
                0x00800126                UBat
                0x0080011b                AnalogOffsetNick
                0x00800113                AD_ACC_X
                0x00800119                AnalogOffsetGier
                0x00800122                HiResRoll
                0x00800118                AdReady
                0x0080011a                AnalogOffsetRoll
                0x0080011c                MessLuftdruck
                0x00800116                BaroStep
                0x0080011e                Luftdruck
                0x00800124                HiResNick
                0x00800114                AD_ACC_Y
                0x00800115                CalAthmospheare
 .data          0x00800128        0x1 menu.o
                0x00800128                MaxMenue
 .data          0x00800129       0x13 eeprom.o
 .data          0x0080013c        0x4 twimaster.o
                0x0080013f                ReadBlSize
                0x0080013e                Max_I2C_Packets
                0x0080013c                I2CTimeout
 .data          0x00800140        0x3 rc.o
                0x00800140                PPM_Neutral
                0x00800142                NewPpmData
 .data          0x00800143       0x55 fc.o
                0x00800168                Parameter_CouplingYawCorrection
                0x00800188                Umschlag180Nick
                0x0080017d                Ki
                0x0080017c                Parameter_Luftdruck_D
                0x00800167                Parameter_DynamicStability
                0x00800174                Parameter_Gyro_Gier_P
                0x00800179                Parameter_KompassWirkung
                0x0080016f                Parameter_ServoNickControl
                0x00800190                NC_CompassSetpoint
                0x00800182                StickGasHover
                0x00800176                Parameter_Gyro_P
                0x00800177                Parameter_Gyro_D
                0x0080017b                Parameter_Hoehe_P
                0x00800169                Parameter_AchsKopplung2
                0x0080017a                Parameter_Hoehe_ACC_Wirkung
                0x00800144                GIER_GRAD_FAKTOR
                0x0080018f                CalculateCompassTimer
                0x0080016b                Parameter_LoopGasLimit
                0x00800192                KompassValue
                0x0080016c                Parameter_ServoRollComp
                0x0080016a                Parameter_AchsKopplung1
                0x00800148                sintab
                0x0080017f                carefree_old
                0x00800170                Parameter_NickControl
                0x00800175                Parameter_Gyro_I
                0x0080016d                Parameter_ServoNickComp
                0x00800178                Parameter_Hoehe_TiltCompensation
                0x00800173                Parameter_Gyro_Gier_I
                0x00800184                Umschlag180Roll
                0x00800171                Parameter_I_Faktor
                0x00800143                VarioCharacter
                0x0080016e                Parameter_ServoRollControl
                0x0080018e                KompassFusion
                0x0080018c                KompassSignalSchlecht
                0x00800172                Parameter_Gier_P
                0x00800180                HoverGasMax
 .data          0x00800198        0x0 GPS.o
 .data          0x00800198       0x11 spi.o
                0x00800199                SPI_CommandSequence
                0x008001a7                FromNC_Rotate_C
                0x008001a6                NaviDataOkay
                0x00800198                NC_GPS_ModeCharacter
 .data          0x008001a9        0x2 led.o
                0x008001aa                J16Mask
                0x008001a9                J17Mask
 .data          0x008001ab        0x1 Spektrum.o
 .data          0x008001ac        0x0 mymath.o
 .data          0x008001ac        0x7 jetimenu.o
                0x008001ac                JumpToMenu
 .data          0x008001b3        0x0 capacity.o
 .data          0x008001b3        0x0 debug.o
 .data          0x008001b3        0x6 hottmenu.o
                0x008001b3                SpeakHoTT
 .data          0x008001b9        0x0 sbus.o
 .data          0x008001b9        0x0 user_receiver.o
 .data          0x008001b9        0x0 M-Link.o
 .data          0x008001b9      0x130 jeti_ex.o
                0x008001b9                JetiExData
 .data          0x008002e9        0x0 isqrt.o
 .data          0x008002e9        0x0 C:/WinAVR/bin/../lib/gcc/avr/3.4.6/../../../../avr/lib/avr5\libm.a(addsf3.o)
 .data          0x008002e9        0x0 C:/WinAVR/bin/../lib/gcc/avr/3.4.6/../../../../avr/lib/avr5\libm.a(addsf3x.o)
 .data          0x008002e9        0x0 C:/WinAVR/bin/../lib/gcc/avr/3.4.6/../../../../avr/lib/avr5\libm.a(fixunssfsi.o)
 .data          0x008002e9        0x0 C:/WinAVR/bin/../lib/gcc/avr/3.4.6/../../../../avr/lib/avr5\libm.a(floatsisf.o)
 .data          0x008002e9        0x0 C:/WinAVR/bin/../lib/gcc/avr/3.4.6/../../../../avr/lib/avr5\libm.a(fp_inf.o)
 .data          0x008002e9        0x0 C:/WinAVR/bin/../lib/gcc/avr/3.4.6/../../../../avr/lib/avr5\libm.a(fp_nan.o)
 .data          0x008002e9        0x0 C:/WinAVR/bin/../lib/gcc/avr/3.4.6/../../../../avr/lib/avr5\libm.a(fp_pscA.o)
 .data          0x008002e9        0x0 C:/WinAVR/bin/../lib/gcc/avr/3.4.6/../../../../avr/lib/avr5\libm.a(fp_pscB.o)
 .data          0x008002e9        0x0 C:/WinAVR/bin/../lib/gcc/avr/3.4.6/../../../../avr/lib/avr5\libm.a(fp_round.o)
 .data          0x008002e9        0x0 C:/WinAVR/bin/../lib/gcc/avr/3.4.6/../../../../avr/lib/avr5\libm.a(fp_split3.o)
 .data          0x008002e9        0x0 C:/WinAVR/bin/../lib/gcc/avr/3.4.6/../../../../avr/lib/avr5\libm.a(fp_zero.o)
 .data          0x008002e9        0xa libfc1284.a(libfc.o)
                0x008002ee                kf089uwjef89234hffhh
                0x008002ed                md5
                0x008002eb                adad_HiSystems_GmbH_
                0x008002ef                f8jhreghreGerg45gE542
                0x008002e9                CallBootloader2
 .data          0x008002f3        0x0 C:/WinAVR/lib/gcc/avr/3.4.6/avr5\libgcc.a(_mulsi3.o)
 .data          0x008002f3        0x0 C:/WinAVR/lib/gcc/avr/3.4.6/avr5\libgcc.a(_udivmodqi4.o)
 .data          0x008002f3        0x0 C:/WinAVR/lib/gcc/avr/3.4.6/avr5\libgcc.a(_udivmodhi4.o)
 .data          0x008002f3        0x0 C:/WinAVR/lib/gcc/avr/3.4.6/avr5\libgcc.a(_divmodhi4.o)
 .data          0x008002f3        0x0 C:/WinAVR/lib/gcc/avr/3.4.6/avr5\libgcc.a(_udivmodsi4.o)
 .data          0x008002f3        0x0 C:/WinAVR/lib/gcc/avr/3.4.6/avr5\libgcc.a(_divmodsi4.o)
 .data          0x008002f3        0x0 C:/WinAVR/lib/gcc/avr/3.4.6/avr5\libgcc.a(_prologue.o)
 .data          0x008002f3        0x0 C:/WinAVR/lib/gcc/avr/3.4.6/avr5\libgcc.a(_epilogue.o)
 .data          0x008002f3        0x0 C:/WinAVR/lib/gcc/avr/3.4.6/avr5\libgcc.a(_exit.o)
 .data          0x008002f3        0x0 C:/WinAVR/lib/gcc/avr/3.4.6/avr5\libgcc.a(_tablejump.o)
 .data          0x008002f3        0x0 C:/WinAVR/lib/gcc/avr/3.4.6/avr5\libgcc.a(_clear_bss.o)
 .data          0x008002f3        0x0 C:/WinAVR/bin/../lib/gcc/avr/3.4.6/../../../../avr/lib/avr5\libc.a(memcpy_P.o)
 .data          0x008002f3        0x0 C:/WinAVR/bin/../lib/gcc/avr/3.4.6/../../../../avr/lib/avr5\libc.a(memchr.o)
 .data          0x008002f3        0x0 C:/WinAVR/bin/../lib/gcc/avr/3.4.6/../../../../avr/lib/avr5\libc.a(memcpy.o)
 .data          0x008002f3        0x0 C:/WinAVR/bin/../lib/gcc/avr/3.4.6/../../../../avr/lib/avr5\libc.a(eerd_block.o)
 .data          0x008002f3        0x0 C:/WinAVR/bin/../lib/gcc/avr/3.4.6/../../../../avr/lib/avr5\libc.a(eerd_word.o)
 .data          0x008002f3        0x0 C:/WinAVR/bin/../lib/gcc/avr/3.4.6/../../../../avr/lib/avr5\libc.a(eewr_block.o)
 .data          0x008002f3        0x0 C:/WinAVR/bin/../lib/gcc/avr/3.4.6/../../../../avr/lib/avr5\libc.a(eewr_word.o)
 *(.data*)
 *(.rodata)
 *(.rodata*)
 *(.gnu.linkonce.d*)
                0x008002f4                . = ALIGN (0x2)
 *fill*         0x008002f3        0x1 00
                0x008002f4                _edata = .
                0x008002f4                PROVIDE (__data_end, .)

.bss            0x008002f4      0xa7f
                0x008002f4                PROVIDE (__bss_start, .)
 *(.bss)
 .bss           0x008002f4        0x0 C:/WinAVR/bin/../lib/gcc/avr/3.4.6/../../../../avr/lib/avr5/crtm1284p.o
 .bss           0x008002f4        0xc main.o
                0x008002fe                DisableRcOffBeeping
                0x008002f6                FlugSekunden
                0x008002fa                FlugMinuten
                0x008002f8                FlugMinutenGesamt
                0x008002fd                BattAutoLandingVoltage
                0x008002fc                BattComingHomeVoltage
                0x008002f5                FoundMotors
                0x008002f4                JetiBeep
 .bss           0x00800300       0x23 uart.o
                0x00800313                SioTmp
                0x00800303                Display_Interval
                0x0080030b                PC_DebugTimeout
                0x00800309                ExternalControlTimeout
                0x00800316                GetVersionAnforderung
                0x00800311                NeueKoordinateEmpfangen
                0x00800305                Intervall3D
                0x00800317                DebugDataAnforderung
                0x00800300                ReceiverUpdateModeActive
                0x0080030a                PC_MotortestActive
                0x00800312                NeuerDatensatzEmpfangen
                0x00800318                DebugDisplayAnforderung
                0x00800307                DebugDataIntervall
                0x00800310                CntCrcError
                0x00800301                AboTimeOut
                0x00800315                GetPPMChannelAnforderung
                0x00800319                DebugDisplayAnforderung1
                0x00800314                DisplayLine
                0x0080031a                GetExternalControl
                0x0080030d                pRxData
                0x0080030c                RxDataLen
                0x0080030f                AnzahlEmpfangsBytes
 .bss           0x00800323       0x15 timer0.o
                0x00800327                RemainingPulse
                0x0080032c                beeptime
                0x00800325                ServoNickValue
                0x0080032b                BytegapSPI
                0x00800331                CountMilliseconds
                0x0080032a                ServoActive
                0x0080032e                cntKompass
                0x00800330                UpdateMotor
                0x00800323                ServoRollValue
                0x00800329                JustMK3MagConnected
 .bss           0x00800338       0x44 analog.o
                0x00800348                ZaehlMessungen
                0x0080034a                VarioMeter
                0x0080034c                ExpandBaro
                0x00800359                AdWertRoll
                0x00800338                HoehenWertF_Mess
                0x00800353                AdWertAccNick
                0x0080033c                HoehenWert_Mess
                0x0080035b                AdWertNick
                0x00800340                HoehenWertF
                0x0080035d                AdWertGierFilter
                0x00800357                AdWertGier
                0x00800361                AdWertNickFilter
                0x00800355                AdWertAccRoll
                0x0080034d                SummenHoehe
                0x0080035f                AdWertRollFilter
                0x00800351                AdWertAccHoch
                0x00800344                ExpandBaroStep
 .bss           0x0080037c        0x6 menu.o
                0x0080037e                DispPtr
                0x0080037d                MenuePunkt
                0x0080037c                RemoteKeys
 .bss           0x00800382        0x0 eeprom.o
 .bss           0x00800382       0x11 twimaster.o
                0x0080038a                motor_write
                0x00800386                BLFlags
                0x0080038c                twi_state
                0x00800387                MissingMotor
                0x00800389                motor_read
                0x0080038b                dac_channel
                0x00800388                I2C_TransferActive
                0x00800384                BLConfig_WriteMask
                0x00800382                BLConfig_ReadMask
 .bss           0x00800393        0x5 rc.o
                0x00800393                tmpChannels
 .bss           0x00800398       0xe8 fc.o
                0x00800401                Mess_Integral_Gier2
                0x008003c3                LageKorrekturRoll
                0x008003e7                StickGier
                0x008003b9                Looping_Oben
                0x0080039e                LowVoltageLandingActive
                0x00800429                BoatNeutralRoll
                0x008003db                SenderOkay
                0x008003b3                Parameter_UserParam5
                0x00800411                Integral_Gier
                0x008003a7                FC_StatusFlags2
                0x008003eb                StickNick
                0x008003da                MotorenEin
                0x0080041d                ControlHeading
                0x008003be                Looping_Nick
                0x008003d5                HoehenWert
                0x008003ba                Looping_Unten
                0x008003ab                MaxStickRoll
                0x008003a9                modell_fliegt
                0x008003b7                Parameter_UserParam1
                0x00800433                AdNeutralRoll
                0x0080039f                ACC_AltitudeControl
                0x008003a6                FC_StatusFlags3
                0x00800399                DriftRoll
                0x008003cb                FromNC_AltitudeSetpoint
                0x008003c7                CompassGierSetpoint
                0x008003bf                HoverGas
                0x008003bc                Looping_Links
                0x008003c6                CalibrationDone
                0x008003f3                KompassSollWert
                0x00800419                IntegralNick
                0x008003f5                Mess_Integral_Hoch
                0x008003b1                Parameter_UserParam7
                0x00800437                BaroExpandActive
                0x00800421                NaviCntAcc
                0x008003f1                TrichterFlug
                0x00800425                NeutralAccX
                0x008003f9                SummeRoll
                0x00800405                Mess_Integral_Gier
                0x0080041e                NeutralAccZfine
                0x008003d9                StartTrigger
                0x008003c1                LageKorrekturNick
                0x008003c9                WaypointTrimming
                0x008003b4                Parameter_UserParam4
                0x008003c5                NeueKompassRichtungMerken
                0x008003e5                StickGas
                0x0080039d                LowVoltageHomeActive
                0x008003ca                FromNC_AltitudeSpeed
                0x008003bd                Looping_Roll
                0x008003af                CareFree
                0x0080042b                BoatNeutralNick
                0x008003b6                Parameter_UserParam2
                0x0080042d                StartNeutralNick
                0x00800409                Mess_IntegralRoll
                0x008003e9                StickRoll
                0x00800435                AdNeutralNick
                0x00800423                NeutralAccY
                0x008003dc                Poti
                0x008003cf                AltitudeSetpointTrimming
                0x008003a0                Variance
                0x0080041f                NeutralAccZ
                0x008003b2                Parameter_UserParam6
                0x0080039b                DriftNick
                0x008003ad                MaxStickNick
                0x008003b8                Parameter_HoehenSchalter
                0x008003a8                FC_StatusFlags
                0x008003b5                Parameter_UserParam3
                0x00800431                AdNeutralGier
                0x0080042f                StartNeutralRoll
                0x008003a2                GasIsZeroCnt
                0x008003ed                HoverGasMin
                0x008003bb                Looping_Rechts
                0x008003a4                HooverGasEmergencyPercent
                0x008003f2                HoehenReglerAktiv
                0x00800427                BoatNeutralGier
                0x008003d1                SollHoehe
                0x008003b0                Parameter_UserParam8
                0x00800398                ServoFailsafeActive
                0x008003ef                GierGyroFehler
                0x0080040d                Mess_IntegralNick
                0x008003fd                SummeNick
                0x00800415                IntegralRoll
 .bss           0x00800480        0x5 GPS.o
                0x00800483                GPS_Nick
                0x00800480                GPS_Aid_StickMultiplikator
                0x00800481                GPS_Roll
 .bss           0x00800485       0x15 spi.o
                0x0080048e                NC_To_FC_Flags
                0x0080048b                POI_KameraNick
                0x00800494                FromNC_WP_EventChannel_New
                0x00800495                FromNC_Rotate_S
                0x00800491                EarthMagneticField
                0x00800492                NC_ErrorCode
                0x00800485                MagVec
                0x0080048f                EarthMagneticInclinationTheoretic
                0x00800490                EarthMagneticInclination
                0x00800493                SPI_CommandCounter
                0x0080048d                NCForcesNewDirection
 .bss           0x0080049a       0x11 led.o
                0x008004a0                LED2_Timing
                0x0080049a                Out1ChangedFlag
                0x0080049b                ShutterCounter
                0x008004a2                LED1_Timing
                0x0080049e                J17Blinkcount
                0x0080049d                NC_Wait_for_LED
                0x0080049f                J16Blinkcount
 .bss           0x008004ab        0x5 Spektrum.o
                0x008004ab                SpektrumTimer
 .bss           0x008004b0        0x0 mymath.o
 .bss           0x008004b0       0x10 jetimenu.o
 .bss           0x008004c0        0xa capacity.o
                0x008004c0                update_timer
 .bss           0x008004ca        0x0 debug.o
 .bss           0x008004ca       0x28 hottmenu.o
                0x008004d4                ToNC_Load_SingePoint
                0x008004d8                NaviData_WaypointNumber
                0x008004cf                MinBlTemperture
                0x008004ce                HottestBl
                0x008004d0                MaxBlTemperture
                0x008004d5                NaviData_MaxWpListIndex
                0x008004d3                ToNC_Store_SingePoint
                0x008004d9                NaviData_WaypointIndex
                0x008004d1                NaviData_TargetDistance
                0x008004ca                HoTTVarioMeter
                0x008004d7                NaviData_TargetHoldTime
                0x008004d6                ToNC_Load_WP_List
                0x008004cc                ShowSettingNameTime
                0x008004cd                ToNC_SpeakHoTT
 .bss           0x008004f2        0x3 sbus.o
                0x008004f2                NewSBusData
 .bss           0x008004f5        0x0 user_receiver.o
 .bss           0x008004f5        0x3 M-Link.o
                0x008004f5                NewMlinkData
 .bss           0x008004f8        0x2 jeti_ex.o
 .bss           0x008004fa        0x0 isqrt.o
 .bss           0x008004fa        0x0 C:/WinAVR/bin/../lib/gcc/avr/3.4.6/../../../../avr/lib/avr5\libm.a(addsf3.o)
 .bss           0x008004fa        0x0 C:/WinAVR/bin/../lib/gcc/avr/3.4.6/../../../../avr/lib/avr5\libm.a(addsf3x.o)
 .bss           0x008004fa        0x0 C:/WinAVR/bin/../lib/gcc/avr/3.4.6/../../../../avr/lib/avr5\libm.a(fixunssfsi.o)
 .bss           0x008004fa        0x0 C:/WinAVR/bin/../lib/gcc/avr/3.4.6/../../../../avr/lib/avr5\libm.a(floatsisf.o)
 .bss           0x008004fa        0x0 C:/WinAVR/bin/../lib/gcc/avr/3.4.6/../../../../avr/lib/avr5\libm.a(fp_inf.o)
 .bss           0x008004fa        0x0 C:/WinAVR/bin/../lib/gcc/avr/3.4.6/../../../../avr/lib/avr5\libm.a(fp_nan.o)
 .bss           0x008004fa        0x0 C:/WinAVR/bin/../lib/gcc/avr/3.4.6/../../../../avr/lib/avr5\libm.a(fp_pscA.o)
 .bss           0x008004fa        0x0 C:/WinAVR/bin/../lib/gcc/avr/3.4.6/../../../../avr/lib/avr5\libm.a(fp_pscB.o)
 .bss           0x008004fa        0x0 C:/WinAVR/bin/../lib/gcc/avr/3.4.6/../../../../avr/lib/avr5\libm.a(fp_round.o)
 .bss           0x008004fa        0x0 C:/WinAVR/bin/../lib/gcc/avr/3.4.6/../../../../avr/lib/avr5\libm.a(fp_split3.o)
 .bss           0x008004fa        0x0 C:/WinAVR/bin/../lib/gcc/avr/3.4.6/../../../../avr/lib/avr5\libm.a(fp_zero.o)
 .bss           0x008004fa       0x3f libfc1284.a(libfc.o)
                0x008004fa                SinceV23
                0x008004fe                Hott_TxWait
                0x008004fc                IllIIllIlIlIlIllllII
                0x00800504                DJFIORJHcvjr894hjhffj
                0x008004ff                HoTT_TxBytesLeft
                0x00800500                HoTT_DataPointer
                0x00800503                IIIIIlIllllllIIllIIll
                0x008004fb                weiuncefcnsavsgvghjc
                0x00800505                fij48zrhoih3498fhfo90
                0x008004fd                HoTTBlink
                0x00800506                fojk48fj478fhw7fhw39
                0x00800502                XSasC2389ufwejiCjuz32
 .bss           0x00800539        0x0 C:/WinAVR/lib/gcc/avr/3.4.6/avr5\libgcc.a(_mulsi3.o)
 .bss           0x00800539        0x0 C:/WinAVR/lib/gcc/avr/3.4.6/avr5\libgcc.a(_udivmodqi4.o)
 .bss           0x00800539        0x0 C:/WinAVR/lib/gcc/avr/3.4.6/avr5\libgcc.a(_udivmodhi4.o)
 .bss           0x00800539        0x0 C:/WinAVR/lib/gcc/avr/3.4.6/avr5\libgcc.a(_divmodhi4.o)
 .bss           0x00800539        0x0 C:/WinAVR/lib/gcc/avr/3.4.6/avr5\libgcc.a(_udivmodsi4.o)
 .bss           0x00800539        0x0 C:/WinAVR/lib/gcc/avr/3.4.6/avr5\libgcc.a(_divmodsi4.o)
 .bss           0x00800539        0x0 C:/WinAVR/lib/gcc/avr/3.4.6/avr5\libgcc.a(_prologue.o)
 .bss           0x00800539        0x0 C:/WinAVR/lib/gcc/avr/3.4.6/avr5\libgcc.a(_epilogue.o)
 .bss           0x00800539        0x0 C:/WinAVR/lib/gcc/avr/3.4.6/avr5\libgcc.a(_exit.o)
 .bss           0x00800539        0x0 C:/WinAVR/lib/gcc/avr/3.4.6/avr5\libgcc.a(_tablejump.o)
 .bss           0x00800539        0x0 C:/WinAVR/lib/gcc/avr/3.4.6/avr5\libgcc.a(_clear_bss.o)
 .bss           0x00800539        0x0 C:/WinAVR/bin/../lib/gcc/avr/3.4.6/../../../../avr/lib/avr5\libc.a(memcpy_P.o)
 .bss           0x00800539        0x0 C:/WinAVR/bin/../lib/gcc/avr/3.4.6/../../../../avr/lib/avr5\libc.a(memchr.o)
 .bss           0x00800539        0x0 C:/WinAVR/bin/../lib/gcc/avr/3.4.6/../../../../avr/lib/avr5\libc.a(memcpy.o)
 .bss           0x00800539        0x0 C:/WinAVR/bin/../lib/gcc/avr/3.4.6/../../../../avr/lib/avr5\libc.a(eerd_block.o)
 .bss           0x00800539        0x0 C:/WinAVR/bin/../lib/gcc/avr/3.4.6/../../../../avr/lib/avr5\libc.a(eerd_word.o)
 .bss           0x00800539        0x0 C:/WinAVR/bin/../lib/gcc/avr/3.4.6/../../../../avr/lib/avr5\libc.a(eewr_block.o)
 .bss           0x00800539        0x0 C:/WinAVR/bin/../lib/gcc/avr/3.4.6/../../../../avr/lib/avr5\libc.a(eewr_word.o)
 *(.bss*)
 *(COMMON)
 COMMON         0x00800539        0x2 main.o
                0x00800539                _printf_P
 COMMON         0x0080053b      0x23a uart.o
                0x0080053b                Data3D
                0x00800549                Timer3D
                0x0080054b                Debug_Timer
                0x0080054d                ExternalControl
                0x00800554                VersionInfo
                0x0080055e                MotorTest
                0x0080056e                WinkelOut
                0x00800576                Kompass_Timer
                0x00800578                RxdBuffer
                0x00800654                Display_Timer
                0x00800656                TxdBuffer
                0x00800732                DebugOut
                0x00800774                ConfirmFrame
 COMMON         0x00800775        0x2 timer0.o
                0x00800775                tim_main
 COMMON         0x00800777       0x11 analog.o
                0x00800777                Aktuell_ay
                0x00800779                Aktuell_az
                0x0080077b                StartLuftdruck
                0x0080077f                Aktuell_Nick
                0x00800781                Aktuell_Roll
                0x00800783                Aktuell_ax
                0x00800785                DruckOffsetSetting
                0x00800786                Aktuell_Gier
 COMMON         0x00800788       0x50 menu.o
                0x00800788                DisplayBuff
 COMMON         0x008007d8       0xde eeprom.o
                0x008007d8                RequiredMotors
                0x008007d9                EE_Parameter
                0x00800868                Mixer
 COMMON         0x008008b6      0x148 twimaster.o
                0x008008b6                RedundantMotor
                0x00800906                BLConfig
                0x0080090e                Motor
 COMMON         0x008009fe       0x95 rc.o
                0x008009fe                ChannelYaw
                0x00800a00                ChannelRoll
                0x00800a02                Channels
                0x00800a03                ChannelNick
                0x00800a05                PPM_in
                0x00800a4b                ChannelGas
                0x00800a4d                PPM_diff
 COMMON         0x00800a93       0x6b fc.o
                0x00800a93                KopplungsteilNickRoll
                0x00800a95                KopplungsteilRollNick
                0x00800a97                Parameter_Servo4
                0x00800a98                DiffRoll
                0x00800a9a                MesswertRoll
                0x00800a9c                TrimNick
                0x00800a9e                Parameter_NaviGpsP
                0x00800a9f                ErsatzKompassInGrad
                0x00800aa1                GyroFaktorGier
                0x00800aa2                Parameter_MaximumAltitude
                0x00800aa3                TrimRoll
                0x00800aa5                MesswertNick
                0x00800aa7                Parameter_NaviGpsI
                0x00800aa8                RohMesswertRoll
                0x00800aaa                MIN_GAS
                0x00800aab                CosAttitude
                0x00800aad                RohMesswertNick
                0x00800aaf                IntegralFaktorGier
                0x00800ab0                DiffNick
                0x00800ab2                MittelIntegralNick
                0x00800ab6                Parameter_Servo3
                0x00800ab7                NaviAccNick
                0x00800ab9                Parameter_J16Timing
                0x00800aba                MittelIntegralRoll
                0x00800abe                Parameter_ExtraConfig
                0x00800abf                Parameter_Servo5
                0x00800ac0                IntegralFaktor
                0x00800ac1                tmp_motorwert
                0x00800ae1                Parameter_NaviGpsA
                0x00800ae2                Parameter_GlobalConfig
                0x00800ae3                Parameter_NaviWindCorrection
                0x00800ae4                s
                0x00800ae5                h
                0x00800ae6                Mittelwert_AccNick
                0x00800ae8                Parameter_NaviSpeedCompensation
                0x00800ae9                Parameter_J17Timing
                0x00800aea                MAX_GAS
                0x00800aeb                CompassCorrected
                0x00800aed                MesswertGier
                0x00800aef                Parameter_J16Bitmask
                0x00800af0                NaviAccRoll
                0x00800af2                GyroFaktor
                0x00800af3                m
                0x00800af4                ErsatzKompass
                0x00800af8                Mittelwert_AccRoll
                0x00800afa                Parameter_NaviGpsGain
                0x00800afb                Parameter_ExternalControl
                0x00800afc                Parameter_J17Bitmask
                0x00800afd                Parameter_NaviGpsD
 COMMON         0x00800afe       0x7b spi.o
                0x00800afe                SPITransferCompleted
                0x00800aff                GPSInfo
                0x00800b07                SPI_TX_Buffer
                0x00800b09                NC_Version
                0x00800b0e                SPI_BufferIndex
                0x00800b0f                ToNaviCtrl
                0x00800b31                SPI_ChkSum
                0x00800b32                SPI_RxBufferIndex
                0x00800b33                SPI_RxDataValid
                0x00800b34                FromNaviCtrl
                0x00800b54                SPI_Buffer
                0x00800b74                FromNaviCtrl_Value
 COMMON         0x00800b79        0x7 capacity.o
                0x00800b79                Capacity
 COMMON         0x00800b80      0x166 hottmenu.o
                0x00800b80                ElectricAirPacket
                0x00800bac                HoTTGeneral
                0x00800bd8                WPL_Name
                0x00800be2                VarioPacket
                0x00800c0e                ASCIIPacket
                0x00800cba                GPSPacket
 COMMON         0x00800ce6       0x19 sbus.o
                0x00800ce6                sBusBuffer
 COMMON         0x00800cff       0x24 M-Link.o
                0x00800cff                MlinkData
 COMMON         0x00800d23       0x50 libfc1284.a(libfc.o)
                0x00800d23                USART1_EX_TxBuffer
                0x00800d43                HottKeyboard
                0x00800d44                fdknerTjg5i83th589v44
                0x00800d4a                HoTT_RequestedSensor
                0x00800d4b                HoTT_TextPointer
                0x00800d4c                IlIlIlIIIIIIIlIllllll
                0x00800d6f                fgfdogjWEti45e9tjh394
                0x00800d73                PROVIDE (__bss_end, .)
                0x00016dc6                __data_load_start = LOADADDR (.data)
                0x00016fba                __data_load_end = (__data_load_start + SIZEOF (.data))

.noinit         0x00800d73        0x0
                0x00800d73                PROVIDE (__noinit_start, .)
 *(.noinit*)
                0x00800d73                PROVIDE (__noinit_end, .)
                0x00800d73                _end = .
                0x00800d73                PROVIDE (__heap_start, .)

.eeprom         0x00810000        0x0
 *(.eeprom*)
                0x00810000                __eeprom_end = .

.fuse
 *(.fuse)
 *(.lfuse)
 *(.hfuse)
 *(.efuse)

.lock
 *(.lock*)

.signature
 *(.signature*)

.stab           0x00000000     0x1f38
 *(.stab)
 .stab          0x00000000      0x750 C:/WinAVR/bin/../lib/gcc/avr/3.4.6/../../../../avr/lib/avr5/crtm1284p.o
 .stab          0x00000750      0x66c isqrt.o
                                0x678 (size before relaxing)
 .stab          0x00000dbc       0x78 C:/WinAVR/bin/../lib/gcc/avr/3.4.6/../../../../avr/lib/avr5\libm.a(addsf3.o)
                                 0x84 (size before relaxing)
 .stab          0x00000e34      0x4bc C:/WinAVR/bin/../lib/gcc/avr/3.4.6/../../../../avr/lib/avr5\libm.a(addsf3x.o)
                                0x4c8 (size before relaxing)
 .stab          0x000012f0      0x240 C:/WinAVR/bin/../lib/gcc/avr/3.4.6/../../../../avr/lib/avr5\libm.a(fixunssfsi.o)
                                0x24c (size before relaxing)
 .stab          0x00001530      0x318 C:/WinAVR/bin/../lib/gcc/avr/3.4.6/../../../../avr/lib/avr5\libm.a(floatsisf.o)
                                0x324 (size before relaxing)
 .stab          0x00001848       0x78 C:/WinAVR/bin/../lib/gcc/avr/3.4.6/../../../../avr/lib/avr5\libm.a(fp_inf.o)
                                 0x84 (size before relaxing)
 .stab          0x000018c0       0x54 C:/WinAVR/bin/../lib/gcc/avr/3.4.6/../../../../avr/lib/avr5\libm.a(fp_nan.o)
                                 0x60 (size before relaxing)
 .stab          0x00001914       0x84 C:/WinAVR/bin/../lib/gcc/avr/3.4.6/../../../../avr/lib/avr5\libm.a(fp_pscA.o)
                                 0x90 (size before relaxing)
 .stab          0x00001998       0x84 C:/WinAVR/bin/../lib/gcc/avr/3.4.6/../../../../avr/lib/avr5\libm.a(fp_pscB.o)
                                 0x90 (size before relaxing)
 .stab          0x00001a1c       0xfc C:/WinAVR/bin/../lib/gcc/avr/3.4.6/../../../../avr/lib/avr5\libm.a(fp_round.o)
                                0x108 (size before relaxing)
 .stab          0x00001b18      0x1d4 C:/WinAVR/bin/../lib/gcc/avr/3.4.6/../../../../avr/lib/avr5\libm.a(fp_split3.o)
                                0x1e0 (size before relaxing)
 .stab          0x00001cec       0x90 C:/WinAVR/bin/../lib/gcc/avr/3.4.6/../../../../avr/lib/avr5\libm.a(fp_zero.o)
                                 0x9c (size before relaxing)
 .stab          0x00001d7c       0x84 C:/WinAVR/bin/../lib/gcc/avr/3.4.6/../../../../avr/lib/avr5\libc.a(memcpy_P.o)
                                 0x90 (size before relaxing)
 .stab          0x00001e00       0xb4 C:/WinAVR/bin/../lib/gcc/avr/3.4.6/../../../../avr/lib/avr5\libc.a(memchr.o)
                                 0xc0 (size before relaxing)
 .stab          0x00001eb4       0x84 C:/WinAVR/bin/../lib/gcc/avr/3.4.6/../../../../avr/lib/avr5\libc.a(memcpy.o)
                                 0x90 (size before relaxing)

.stabstr        0x00000000      0x4dc
 *(.stabstr)
 .stabstr       0x00000000      0x4dc C:/WinAVR/bin/../lib/gcc/avr/3.4.6/../../../../avr/lib/avr5/crtm1284p.o

.stab.excl
 *(.stab.excl)

.stab.exclstr
 *(.stab.exclstr)

.stab.index
 *(.stab.index)

.stab.indexstr
 *(.stab.indexstr)

.comment
 *(.comment)

.debug
 *(.debug)

.line
 *(.line)

.debug_srcinfo
 *(.debug_srcinfo)

.debug_sfnames
 *(.debug_sfnames)

.debug_aranges  0x00000000       0x50
 *(.debug_aranges)
 .debug_aranges
                0x00000000       0x14 C:/WinAVR/bin/../lib/gcc/avr/3.4.6/../../../../avr/lib/avr5\libc.a(eerd_block.o)
 .debug_aranges
                0x00000014       0x14 C:/WinAVR/bin/../lib/gcc/avr/3.4.6/../../../../avr/lib/avr5\libc.a(eerd_word.o)
 .debug_aranges
                0x00000028       0x14 C:/WinAVR/bin/../lib/gcc/avr/3.4.6/../../../../avr/lib/avr5\libc.a(eewr_block.o)
 .debug_aranges
                0x0000003c       0x14 C:/WinAVR/bin/../lib/gcc/avr/3.4.6/../../../../avr/lib/avr5\libc.a(eewr_word.o)

.debug_pubnames
                0x00000000       0x8a
 *(.debug_pubnames)
 .debug_pubnames
                0x00000000       0x23 C:/WinAVR/bin/../lib/gcc/avr/3.4.6/../../../../avr/lib/avr5\libc.a(eerd_block.o)
 .debug_pubnames
                0x00000023       0x22 C:/WinAVR/bin/../lib/gcc/avr/3.4.6/../../../../avr/lib/avr5\libc.a(eerd_word.o)
 .debug_pubnames
                0x00000045       0x23 C:/WinAVR/bin/../lib/gcc/avr/3.4.6/../../../../avr/lib/avr5\libc.a(eewr_block.o)
 .debug_pubnames
                0x00000068       0x22 C:/WinAVR/bin/../lib/gcc/avr/3.4.6/../../../../avr/lib/avr5\libc.a(eewr_word.o)

.debug_info     0x00000000      0x40b
 *(.debug_info)
 .debug_info    0x00000000       0xfd C:/WinAVR/bin/../lib/gcc/avr/3.4.6/../../../../avr/lib/avr5\libc.a(eerd_block.o)
 .debug_info    0x000000fd      0x131 C:/WinAVR/bin/../lib/gcc/avr/3.4.6/../../../../avr/lib/avr5\libc.a(eerd_word.o)
 .debug_info    0x0000022e       0xf9 C:/WinAVR/bin/../lib/gcc/avr/3.4.6/../../../../avr/lib/avr5\libc.a(eewr_block.o)
 .debug_info    0x00000327       0xe4 C:/WinAVR/bin/../lib/gcc/avr/3.4.6/../../../../avr/lib/avr5\libc.a(eewr_word.o)
 *(.gnu.linkonce.wi.*)

.debug_abbrev   0x00000000      0x276
 *(.debug_abbrev)
 .debug_abbrev  0x00000000       0x9a C:/WinAVR/bin/../lib/gcc/avr/3.4.6/../../../../avr/lib/avr5\libc.a(eerd_block.o)
 .debug_abbrev  0x0000009a       0xc6 C:/WinAVR/bin/../lib/gcc/avr/3.4.6/../../../../avr/lib/avr5\libc.a(eerd_word.o)
 .debug_abbrev  0x00000160       0x91 C:/WinAVR/bin/../lib/gcc/avr/3.4.6/../../../../avr/lib/avr5\libc.a(eewr_block.o)
 .debug_abbrev  0x000001f1       0x85 C:/WinAVR/bin/../lib/gcc/avr/3.4.6/../../../../avr/lib/avr5\libc.a(eewr_word.o)

.debug_line     0x00000000      0x358
 *(.debug_line)
 .debug_line    0x00000000       0xd5 C:/WinAVR/bin/../lib/gcc/avr/3.4.6/../../../../avr/lib/avr5\libc.a(eerd_block.o)
 .debug_line    0x000000d5       0xda C:/WinAVR/bin/../lib/gcc/avr/3.4.6/../../../../avr/lib/avr5\libc.a(eerd_word.o)
 .debug_line    0x000001af       0xd5 C:/WinAVR/bin/../lib/gcc/avr/3.4.6/../../../../avr/lib/avr5\libc.a(eewr_block.o)
 .debug_line    0x00000284       0xd4 C:/WinAVR/bin/../lib/gcc/avr/3.4.6/../../../../avr/lib/avr5\libc.a(eewr_word.o)

.debug_frame
 *(.debug_frame)

.debug_str      0x00000000      0x156
 *(.debug_str)
 .debug_str     0x00000000       0xb5 C:/WinAVR/bin/../lib/gcc/avr/3.4.6/../../../../avr/lib/avr5\libc.a(eerd_block.o)
                                 0xe9 (size before relaxing)
 .debug_str     0x000000b5       0x3e C:/WinAVR/bin/../lib/gcc/avr/3.4.6/../../../../avr/lib/avr5\libc.a(eerd_word.o)
                                 0xf3 (size before relaxing)
 .debug_str     0x000000f3       0x32 C:/WinAVR/bin/../lib/gcc/avr/3.4.6/../../../../avr/lib/avr5\libc.a(eewr_block.o)
                                 0xe9 (size before relaxing)
 .debug_str     0x00000125       0x31 C:/WinAVR/bin/../lib/gcc/avr/3.4.6/../../../../avr/lib/avr5\libc.a(eewr_word.o)
                                 0xea (size before relaxing)

.debug_loc
 *(.debug_loc)

.debug_macinfo
 *(.debug_macinfo)
OUTPUT(Flight-Ctrl_MEGA1284P_V2_10e_SVN.elf elf32-avr)
LOAD linker stubs

Cross Reference Table

Symbol                                            File
ACC_AltitudeControl                               fc.o
                                                  eeprom.o
                                                  menu.o
                                                  analog.o
                                                  main.o
ACC_AltitudeFusion                                libfc1284.a(libfc.o)
                                                  fc.o
                                                  analog.o
ADC_Init                                          analog.o
                                                  main.o
AD_ACC_X                                          analog.o
                                                  libfc1284.a(libfc.o)
AD_ACC_Y                                          analog.o
                                                  libfc1284.a(libfc.o)
ANALOG_TEXT                                       uart.o
ASCIIPacket                                       libfc1284.a(libfc.o)
                                                  hottmenu.o
AboTimeOut                                        uart.o
ActiveParamSet                                    main.o
                                                  hottmenu.o
                                                  jetimenu.o
                                                  spi.o
                                                  fc.o
                                                  eeprom.o
                                                  menu.o
AdNeutralGier                                     fc.o
                                                  spi.o
                                                  rc.o
                                                  menu.o
AdNeutralNick                                     fc.o
                                                  spi.o
                                                  rc.o
                                                  menu.o
                                                  analog.o
AdNeutralRoll                                     fc.o
                                                  spi.o
                                                  rc.o
                                                  menu.o
                                                  analog.o
AdReady                                           analog.o
                                                  fc.o
                                                  timer0.o
                                                  main.o
AdWertAccHoch                                     analog.o
                                                  libfc1284.a(libfc.o)
                                                  fc.o
                                                  menu.o
AdWertAccNick                                     analog.o
                                                  libfc1284.a(libfc.o)
                                                  fc.o
                                                  menu.o
AdWertAccRoll                                     analog.o
                                                  libfc1284.a(libfc.o)
                                                  fc.o
                                                  menu.o
AdWertGier                                        analog.o
                                                  spi.o
                                                  fc.o
                                                  menu.o
AdWertGierFilter                                  analog.o
AdWertNick                                        analog.o
                                                  fc.o
                                                  menu.o
AdWertNickFilter                                  analog.o
                                                  fc.o
AdWertRoll                                        analog.o
                                                  fc.o
                                                  menu.o
AdWertRollFilter                                  analog.o
                                                  fc.o
AddCRC                                            uart.o
Aktuell_Gier                                      analog.o
Aktuell_Nick                                      analog.o
Aktuell_Roll                                      analog.o
Aktuell_ax                                        analog.o
Aktuell_ay                                        analog.o
Aktuell_az                                        fc.o
                                                  analog.o
                                                  uart.o
                                                  main.o
AltitudeSetpointTrimming                          fc.o
                                                  jeti_ex.o
                                                  hottmenu.o
AnalogOffsetGier                                  analog.o
AnalogOffsetNick                                  analog.o
AnalogOffsetRoll                                  analog.o
AnzahlEmpfangsBytes                               uart.o
BL3_Current                                       capacity.o
                                                  hottmenu.o
                                                  menu.o
BLConfig                                          twimaster.o
                                                  uart.o
BLConfig_ReadMask                                 twimaster.o
BLConfig_WriteMask                                twimaster.o
BLFlags                                           twimaster.o
                                                  fc.o
                                                  main.o
BOAT_MODE                                         hottmenu.o
BaroExpandActive                                  fc.o
                                                  analog.o
BaroStep                                          analog.o
                                                  fc.o
BattAutoLandingVoltage                            main.o
                                                  fc.o
                                                  menu.o
BattComingHomeVoltage                             main.o
                                                  fc.o
                                                  menu.o
BattLowVoltageWarning                             main.o
                                                  hottmenu.o
                                                  spi.o
                                                  fc.o
                                                  menu.o
BearbeiteRxDaten                                  uart.o
                                                  main.o
BeepMuster                                        timer0.o
                                                  fc.o
                                                  main.o
BoatNeutralGier                                   fc.o
                                                  spi.o
BoatNeutralNick                                   fc.o
                                                  spi.o
BoatNeutralRoll                                   fc.o
                                                  spi.o
BuildHoTT_Vario                                   hottmenu.o
BuildJeti_Vario                                   jeti_ex.o
                                                  main.o
BytegapSPI                                        timer0.o
                                                  spi.o
                                                  fc.o
                                                  main.o
CalAthmospheare                                   analog.o
                                                  menu.o
CalMk3Mag                                         main.o
CalcExpandBaroStep                                analog.o
                                                  fc.o
CalcNickServoValue                                timer0.o
                                                  main.o
CalcStickGasHover                                 fc.o
CalculateCompassTimer                             fc.o
                                                  spi.o
CalculateDebugLableCrc                            uart.o
CalculateServo                                    timer0.o
                                                  fc.o
                                                  main.o
CalculateServoSignals                             timer0.o
                                                  fc.o
                                                  main.o
CalibrationDone                                   fc.o
                                                  hottmenu.o
                                                  main.o
CalibrierMittelwert                               fc.o
CallBootloader2                                   libfc1284.a(libfc.o)
Capacity                                          libfc1284.a(libfc.o)
                                                  jeti_ex.o
                                                  hottmenu.o
                                                  capacity.o
                                                  jetimenu.o
                                                  spi.o
                                                  fc.o
                                                  menu.o
                                                  main.o
Capacity_Init                                     capacity.o
                                                  main.o
Capacity_Update                                   capacity.o
                                                  main.o
CareFree                                          fc.o
                                                  hottmenu.o
                                                  main.o
ChannelAssingment                                 fc.o
                                                  main.o
ChannelGas                                        hottmenu.o
                                                  spi.o
                                                  fc.o
                                                  rc.o
                                                  menu.o
                                                  main.o
ChannelNick                                       hottmenu.o
                                                  jetimenu.o
                                                  spi.o
                                                  fc.o
                                                  rc.o
                                                  menu.o
                                                  main.o
ChannelRoll                                       hottmenu.o
                                                  jetimenu.o
                                                  spi.o
                                                  fc.o
                                                  rc.o
                                                  menu.o
                                                  main.o
ChannelYaw                                        hottmenu.o
                                                  spi.o
                                                  fc.o
                                                  rc.o
                                                  menu.o
                                                  main.o
Channels                                          libfc1284.a(libfc.o)
                                                  M-Link.o
                                                  rc.o
                                                  menu.o
CheckDelay                                        timer0.o
                                                  hottmenu.o
                                                  capacity.o
                                                  jetimenu.o
                                                  twimaster.o
                                                  uart.o
                                                  main.o
CntCrcError                                       uart.o
CommonDefaults                                    eeprom.o
CompassCorrected                                  hottmenu.o
                                                  jetimenu.o
                                                  spi.o
                                                  fc.o
                                                  menu.o
CompassGierSetpoint                               fc.o
ConfirmFrame                                      uart.o
ControlHeading                                    fc.o
CopyDebugValues                                   fc.o
                                                  uart.o
CosAttitude                                       libfc1284.a(libfc.o)
                                                  fc.o
                                                  analog.o
CountMilliseconds                                 timer0.o
DFGeefWEF43tgt5uGreg5                             libfc1284.a(libfc.o)
DJFIORJHcvjr894hjhffj                             libfc1284.a(libfc.o)
Data3D                                            uart.o
DatenUebertragung                                 uart.o
                                                  main.o
DebugDataAnforderung                              uart.o
DebugDataIntervall                                uart.o
DebugDisplayAnforderung                           uart.o
DebugDisplayAnforderung1                          uart.o
DebugOut                                          hottmenu.o
                                                  spi.o
                                                  fc.o
                                                  uart.o
                                                  main.o
DebugTextAnforderung                              uart.o
Debug_Timer                                       uart.o
Decode64                                          uart.o
Delay_ms                                          timer0.o
Delay_ms_Mess                                     timer0.o
                                                  fc.o
                                                  analog.o
DiffNick                                          fc.o
DiffRoll                                          fc.o
DisableRcOffBeeping                               main.o
                                                  spi.o
DispPtr                                           menu.o
                                                  uart.o
DisplayBuff                                       menu.o
                                                  uart.o
DisplayLine                                       uart.o
Display_Interval                                  uart.o
Display_Timer                                     uart.o
DriftNick                                         fc.o
DriftRoll                                         fc.o
DruckOffsetSetting                                fc.o
                                                  analog.o
EEProm_Checksum                                   eeprom.o
EE_Parameter                                      libfc1284.a(libfc.o)
                                                  jeti_ex.o
                                                  sbus.o
                                                  hottmenu.o
                                                  jetimenu.o
                                                  Spektrum.o
                                                  led.o
                                                  spi.o
                                                  fc.o
                                                  rc.o
                                                  eeprom.o
                                                  menu.o
                                                  analog.o
                                                  timer0.o
                                                  uart.o
                                                  main.o
EarthMagneticField                                spi.o
                                                  jeti_ex.o
                                                  hottmenu.o
                                                  jetimenu.o
EarthMagneticInclination                          spi.o
                                                  hottmenu.o
                                                  jetimenu.o
EarthMagneticInclinationTheoretic                 spi.o
                                                  hottmenu.o
                                                  jetimenu.o
ElectricAirPacket                                 libfc1284.a(libfc.o)
                                                  hottmenu.o
ErsatzKompass                                     spi.o
                                                  fc.o
                                                  uart.o
ErsatzKompassInGrad                               spi.o
                                                  fc.o
                                                  menu.o
ExpandBaro                                        analog.o
                                                  fc.o
ExpandBaroStep                                    analog.o
ExternalControl                                   fc.o
                                                  uart.o
ExternalControlTimeout                            uart.o
                                                  main.o
FC_StatusFlags                                    fc.o
                                                  libfc1284.a(libfc.o)
                                                  jeti_ex.o
                                                  hottmenu.o
                                                  jetimenu.o
                                                  led.o
                                                  spi.o
                                                  twimaster.o
                                                  menu.o
                                                  main.o
FC_StatusFlags2                                   fc.o
                                                  libfc1284.a(libfc.o)
                                                  hottmenu.o
                                                  led.o
                                                  spi.o
FC_StatusFlags3                                   fc.o
                                                  hottmenu.o
                                                  capacity.o
                                                  jetimenu.o
                                                  spi.o
                                                  menu.o
                                                  main.o
FGRT0589rge90gj459gg4                             libfc1284.a(libfc.o)
FGtj76uzh56z3grEg5t45                             libfc1284.a(libfc.o)
FlugMinuten                                       main.o
                                                  menu.o
FlugMinutenGesamt                                 main.o
                                                  spi.o
                                                  menu.o
FlugSekunden                                      main.o
                                                  hottmenu.o
                                                  jetimenu.o
FoundMotors                                       main.o
FromNC_AltitudeSetpoint                           fc.o
                                                  hottmenu.o
                                                  jetimenu.o
                                                  spi.o
                                                  main.o
FromNC_AltitudeSpeed                              fc.o
                                                  jeti_ex.o
                                                  hottmenu.o
                                                  spi.o
                                                  main.o
FromNC_Rotate_C                                   spi.o
                                                  fc.o
FromNC_Rotate_S                                   spi.o
                                                  fc.o
FromNC_WP_EventChannel_New                        spi.o
                                                  led.o
FromNaviCtrl                                      hottmenu.o
                                                  spi.o
                                                  fc.o
                                                  main.o
FromNaviCtrl_Value                                spi.o
                                                  fc.o
                                                  main.o
GIER_GRAD_FAKTOR                                  fc.o
                                                  spi.o
                                                  uart.o
                                                  main.o
GPSInfo                                           libfc1284.a(libfc.o)
                                                  jeti_ex.o
                                                  hottmenu.o
                                                  jetimenu.o
                                                  spi.o
                                                  fc.o
                                                  main.o
GPSPacket                                         libfc1284.a(libfc.o)
                                                  hottmenu.o
GPS_Aid_StickMultiplikator                        GPS.o
                                                  spi.o
                                                  fc.o
                                                  main.o
GPS_Nick                                          GPS.o
                                                  spi.o
                                                  fc.o
                                                  main.o
GPS_Roll                                          GPS.o
                                                  spi.o
                                                  fc.o
                                                  main.o
GasIsZeroCnt                                      fc.o
GetActiveParamSet                                 eeprom.o
                                                  uart.o
GetChannelValue                                   fc.o
                                                  hottmenu.o
                                                  spi.o
GetExternalControl                                uart.o
GetHottestBl                                      hottmenu.o
                                                  jeti_ex.o
GetPPMChannelAnforderung                          uart.o
GetParamByte                                      eeprom.o
                                                  analog.o
                                                  main.o
GetParamWord                                      eeprom.o
                                                  fc.o
GetVersionAnforderung                             uart.o
GierGyroFehler                                    fc.o
GyroFaktor                                        fc.o
GyroFaktorGier                                    fc.o
HOTT_ERROR                                        hottmenu.o
HiResNick                                         analog.o
                                                  fc.o
HiResRoll                                         analog.o
                                                  fc.o
HoTTBlink                                         libfc1284.a(libfc.o)
                                                  hottmenu.o
HoTTGeneral                                       libfc1284.a(libfc.o)
                                                  hottmenu.o
HoTTVarioMeter                                    hottmenu.o
HoTT_DataPointer                                  libfc1284.a(libfc.o)
                                                  hottmenu.o
HoTT_Init                                         libfc1284.a(libfc.o)
HoTT_Menu                                         hottmenu.o
                                                  main.o
HoTT_Parser                                       libfc1284.a(libfc.o)
HoTT_Polling                                      libfc1284.a(libfc.o)
HoTT_RequestedSensor                              libfc1284.a(libfc.o)
HoTT_Telemety                                     hottmenu.o
                                                  libfc1284.a(libfc.o)
HoTT_TextPointer                                  libfc1284.a(libfc.o)
HoTT_TxBytesLeft                                  libfc1284.a(libfc.o)
HoTT_Waring                                       hottmenu.o
                                                  libfc1284.a(libfc.o)
                                                  spi.o
HoehenReglerAktiv                                 fc.o
                                                  hottmenu.o
HoehenWert                                        fc.o
                                                  libfc1284.a(libfc.o)
                                                  jeti_ex.o
                                                  hottmenu.o
                                                  jetimenu.o
                                                  spi.o
                                                  menu.o
                                                  analog.o
HoehenWertF                                       analog.o
                                                  libfc1284.a(libfc.o)
                                                  fc.o
HoehenWertF_Mess                                  analog.o
                                                  fc.o
HoehenWert_Mess                                   analog.o
                                                  fc.o
HooverGasEmergencyPercent                         fc.o
HottKeyboard                                      libfc1284.a(libfc.o)
                                                  hottmenu.o
Hott_ClearLine                                    hottmenu.o
Hott_TxWait                                       libfc1284.a(libfc.o)
HottestBl                                         hottmenu.o
HoverGas                                          fc.o
                                                  spi.o
HoverGasMax                                       fc.o
HoverGasMin                                       fc.o
I2CTimeout                                        twimaster.o
                                                  menu.o
                                                  main.o
I2C_Init                                          twimaster.o
                                                  main.o
I2C_ReadBLConfig                                  twimaster.o
                                                  uart.o
I2C_Reset                                         twimaster.o
                                                  main.o
I2C_TransferActive                                twimaster.o
                                                  fc.o
I2C_WriteBLConfig                                 twimaster.o
                                                  uart.o
IIIIIlIllllllIIllIIll                             libfc1284.a(libfc.o)
IIllllIllIlllIIlllII                              libfc1284.a(libfc.o)
INiuzBtergGIBuB76T0G5                             libfc1284.a(libfc.o)
IlIlIlIIIIIIIlIllllll                             libfc1284.a(libfc.o)
IllIIllIlIlIlIllllII                              libfc1284.a(libfc.o)
IntegralFaktor                                    fc.o
IntegralFaktorGier                                fc.o
IntegralNick                                      fc.o
                                                  spi.o
                                                  menu.o
                                                  timer0.o
IntegralRoll                                      fc.o
                                                  spi.o
                                                  menu.o
                                                  timer0.o
Integral_Gier                                     fc.o
Intervall3D                                       uart.o
J16Blinkcount                                     led.o
J16Mask                                           led.o
J17Blinkcount                                     led.o
J17Mask                                           led.o
JETI_CODE                                         jeti_ex.o
                                                  spi.o
JetiBeep                                          main.o
                                                  libfc1284.a(libfc.o)
                                                  jetimenu.o
                                                  spi.o
JetiBox_Menu                                      jetimenu.o
JetiBox_Update                                    jetimenu.o
                                                  libfc1284.a(libfc.o)
JetiEX_CreatePacket                               libfc1284.a(libfc.o)
JetiEX_GetLength                                  libfc1284.a(libfc.o)
JetiEX_Update                                     jeti_ex.o
                                                  libfc1284.a(libfc.o)
JetiExData                                        jeti_ex.o
                                                  libfc1284.a(libfc.o)
                                                  hottmenu.o
JumpToMenu                                        jetimenu.o
JustMK3MagConnected                               timer0.o
                                                  uart.o
KLNMIOHMUHG76GFGr43r3                             libfc1284.a(libfc.o)
Ki                                                fc.o
KompassFusion                                     fc.o
                                                  spi.o
KompassSignalSchlecht                             fc.o
KompassSollWert                                   fc.o
                                                  spi.o
                                                  main.o
KompassValue                                      fc.o
                                                  jeti_ex.o
                                                  hottmenu.o
                                                  jetimenu.o
                                                  spi.o
                                                  menu.o
                                                  timer0.o
                                                  uart.o
Kompass_Timer                                     uart.o
KopplungsteilNickRoll                             fc.o
KopplungsteilRollNick                             fc.o
LANDING                                           hottmenu.o
LED1_Timing                                       led.o
LED2_Timing                                       led.o
LED_Init                                          led.o
                                                  fc.o
                                                  eeprom.o
LED_Update                                        led.o
                                                  main.o
LIBFC_CheckSettings                               libfc1284.a(libfc.o)
                                                  eeprom.o
LIBFC_GetCPUType                                  libfc1284.a(libfc.o)
                                                  uart.o
LIBFC_HoTT_Clear                                  libfc1284.a(libfc.o)
                                                  hottmenu.o
                                                  fc.o
                                                  eeprom.o
LIBFC_HoTT_Putchar                                libfc1284.a(libfc.o)
                                                  hottmenu.o
LIBFC_HoTT_Putchar_BLINK                          libfc1284.a(libfc.o)
                                                  hottmenu.o
LIBFC_HoTT_Putchar_INV                            libfc1284.a(libfc.o)
                                                  hottmenu.o
LIBFC_HoTT_SetPos                                 libfc1284.a(libfc.o)
                                                  hottmenu.o
LIBFC_Init                                        libfc1284.a(libfc.o)
                                                  main.o
LIBFC_JetiBox_Clear                               libfc1284.a(libfc.o)
                                                  jetimenu.o
LIBFC_JetiBox_Putchar                             libfc1284.a(libfc.o)
                                                  jetimenu.o
LIBFC_JetiBox_SetPos                              libfc1284.a(libfc.o)
                                                  jetimenu.o
LIBFC_Polling                                     libfc1284.a(libfc.o)
                                                  fc.o
                                                  main.o
LIBFC_ReceiverInit                                libfc1284.a(libfc.o)
                                                  fc.o
                                                  uart.o
                                                  main.o
LageKorrekturNick                                 fc.o
LageKorrekturRoll                                 fc.o
LcdClear                                          menu.o
                                                  uart.o
                                                  main.o
LipoCells                                         main.o
                                                  spi.o
                                                  fc.o
LipoDetection                                     main.o
                                                  fc.o
                                                  uart.o
Looping_Links                                     fc.o
Looping_Nick                                      fc.o
Looping_Oben                                      fc.o
Looping_Rechts                                    fc.o
Looping_Roll                                      fc.o
Looping_Unten                                     fc.o
LowVoltageHomeActive                              fc.o
                                                  spi.o
LowVoltageLandingActive                           fc.o
                                                  hottmenu.o
                                                  spi.o
Luftdruck                                         analog.o
                                                  fc.o
                                                  main.o
MAX_GAS                                           fc.o
MIKROKOPTER                                       hottmenu.o
MIN_GAS                                           fc.o
MagVec                                            spi.o
Magnet_Values                                     jetimenu.o
MaxBlTemperture                                   hottmenu.o
                                                  jeti_ex.o
MaxMenue                                          menu.o
                                                  uart.o
MaxStickNick                                      fc.o
MaxStickRoll                                      fc.o
Max_I2C_Packets                                   twimaster.o
                                                  main.o
MeineSlaveAdresse                                 uart.o
Menu                                              menu.o
                                                  uart.o
Menu_AccCal                                       jetimenu.o
Menu_AccCal_Ask                                   jetimenu.o
Menu_Battery                                      jetimenu.o
Menu_POINT_LD                                     jetimenu.o
Menu_POINT_LD2                                    jetimenu.o
Menu_POINT_SV                                     jetimenu.o
Menu_POINT_SV2                                    jetimenu.o
Menu_PosInfo                                      jetimenu.o
Menu_Putchar                                      menu.o
                                                  uart.o
Menu_Status                                       jetimenu.o
Menu_Temperature                                  jetimenu.o
Menu_WPL_A1                                       jetimenu.o
Menu_WPL_A2                                       jetimenu.o
Menu_WPL_R1                                       jetimenu.o
Menu_WPL_R2                                       jetimenu.o
MenuePunkt                                        menu.o
                                                  uart.o
MessLuftdruck                                     analog.o
                                                  fc.o
                                                  menu.o
Mess_IntegralNick                                 fc.o
Mess_IntegralRoll                                 fc.o
Mess_Integral_Gier                                fc.o
                                                  uart.o
Mess_Integral_Gier2                               fc.o
Mess_Integral_Hoch                                fc.o
                                                  analog.o
MesswertGier                                      fc.o
MesswertNick                                      fc.o
MesswertRoll                                      fc.o
MinBlTemperture                                   hottmenu.o
MissingMotor                                      twimaster.o
                                                  fc.o
                                                  menu.o
                                                  main.o
MittelIntegralNick                                fc.o
MittelIntegralRoll                                fc.o
Mittelwert                                        fc.o
Mittelwert_AccNick                                fc.o
Mittelwert_AccRoll                                fc.o
Mixer                                             hottmenu.o
                                                  spi.o
                                                  fc.o
                                                  twimaster.o
                                                  eeprom.o
                                                  menu.o
                                                  uart.o
                                                  main.o
MixerTable_Default                                eeprom.o
MixerTable_ReadFromEEProm                         eeprom.o
MixerTable_WriteToEEProm                          eeprom.o
                                                  uart.o
MlinkData                                         M-Link.o
MlinkParser                                       M-Link.o
                                                  libfc1284.a(libfc.o)
MlinkUartInit                                     M-Link.o
                                                  libfc1284.a(libfc.o)
Motor                                             hottmenu.o
                                                  capacity.o
                                                  jetimenu.o
                                                  spi.o
                                                  fc.o
                                                  twimaster.o
                                                  menu.o
                                                  main.o
MotorRegler                                       fc.o
                                                  main.o
MotorTest                                         hottmenu.o
                                                  fc.o
                                                  uart.o
MotorenEin                                        fc.o
                                                  hottmenu.o
                                                  led.o
                                                  twimaster.o
                                                  uart.o
                                                  main.o
Msg1                                              libfc1284.a(libfc.o)
Msg2                                              libfc1284.a(libfc.o)
NCForcesNewDirection                              spi.o
                                                  main.o
NC_CompassSetpoint                                fc.o
                                                  spi.o
                                                  main.o
NC_ERROR_TEXT                                     hottmenu.o
                                                  jetimenu.o
                                                  menu.o
NC_ErrorCode                                      spi.o
                                                  jeti_ex.o
                                                  hottmenu.o
                                                  jetimenu.o
                                                  fc.o
                                                  menu.o
                                                  main.o
NC_Fills_HoTT_Telemety                            hottmenu.o
                                                  spi.o
NC_GPS_ModeCharacter                              spi.o
                                                  hottmenu.o
                                                  jetimenu.o
                                                  menu.o
NC_To_FC_Flags                                    spi.o
                                                  hottmenu.o
                                                  jetimenu.o
                                                  fc.o
                                                  main.o
NC_Version                                        libfc1284.a(libfc.o)
                                                  spi.o
                                                  uart.o
                                                  main.o
NC_Wait_for_LED                                   led.o
                                                  spi.o
NaviAccNick                                       spi.o
                                                  fc.o
NaviAccRoll                                       spi.o
                                                  fc.o
NaviCntAcc                                        fc.o
                                                  spi.o
NaviDataOkay                                      spi.o
                                                  hottmenu.o
                                                  jetimenu.o
                                                  timer0.o
                                                  uart.o
                                                  main.o
NaviData_MaxWpListIndex                           hottmenu.o
                                                  jetimenu.o
                                                  spi.o
NaviData_TargetDistance                           hottmenu.o
                                                  jetimenu.o
                                                  spi.o
NaviData_TargetHoldTime                           hottmenu.o
                                                  spi.o
NaviData_WaypointIndex                            hottmenu.o
                                                  libfc1284.a(libfc.o)
                                                  jetimenu.o
                                                  spi.o
NaviData_WaypointNumber                           hottmenu.o
                                                  jetimenu.o
                                                  spi.o
NeueKompassRichtungMerken                         fc.o
                                                  main.o
NeueKoordinateEmpfangen                           uart.o
NeuerDatensatzEmpfangen                           uart.o
NeutralAccX                                       fc.o
                                                  hottmenu.o
                                                  jetimenu.o
                                                  menu.o
                                                  analog.o
NeutralAccY                                       fc.o
                                                  hottmenu.o
                                                  jetimenu.o
                                                  menu.o
                                                  analog.o
NeutralAccZ                                       fc.o
                                                  menu.o
                                                  analog.o
NeutralAccZfine                                   fc.o
                                                  analog.o
NewMlinkData                                      M-Link.o
                                                  main.o
NewPpmData                                        rc.o
                                                  libfc1284.a(libfc.o)
                                                  M-Link.o
                                                  sbus.o
                                                  Spektrum.o
                                                  fc.o
NewSBusData                                       sbus.o
                                                  main.o
NickServoValue                                    timer0.o
                                                  fc.o
Out1ChangedFlag                                   led.o
                                                  spi.o
PC_DebugTimeout                                   uart.o
PC_MotortestActive                                uart.o
                                                  hottmenu.o
                                                  fc.o
                                                  twimaster.o
POI_KameraNick                                    spi.o
                                                  timer0.o
PPM_Neutral                                       rc.o
                                                  libfc1284.a(libfc.o)
PPM_diff                                          libfc1284.a(libfc.o)
                                                  sbus.o
                                                  Spektrum.o
                                                  fc.o
                                                  rc.o
                                                  main.o
PPM_in                                            libfc1284.a(libfc.o)
                                                  sbus.o
                                                  Spektrum.o
                                                  led.o
                                                  spi.o
                                                  fc.o
                                                  rc.o
                                                  menu.o
                                                  timer0.o
                                                  uart.o
                                                  main.o
ParamSet_DefaultSet1                              eeprom.o
ParamSet_DefaultSet2                              eeprom.o
ParamSet_DefaultSet3                              eeprom.o
ParamSet_DefaultStickMapping                      eeprom.o
ParamSet_Init                                     eeprom.o
                                                  main.o
ParamSet_ReadFromEEProm                           eeprom.o
                                                  fc.o
                                                  uart.o
ParamSet_WriteToEEProm                            eeprom.o
                                                  uart.o
ParameterZuordnung                                fc.o
Parameter_AchsKopplung1                           fc.o
Parameter_AchsKopplung2                           fc.o
Parameter_CouplingYawCorrection                   fc.o
Parameter_DynamicStability                        fc.o
Parameter_ExternalControl                         fc.o
Parameter_ExtraConfig                             hottmenu.o
                                                  spi.o
                                                  fc.o
Parameter_Gier_P                                  fc.o
Parameter_GlobalConfig                            libfc1284.a(libfc.o)
                                                  hottmenu.o
                                                  jetimenu.o
                                                  spi.o
                                                  fc.o
                                                  timer0.o
Parameter_Gyro_D                                  fc.o
Parameter_Gyro_Gier_I                             fc.o
Parameter_Gyro_Gier_P                             fc.o
Parameter_Gyro_I                                  fc.o
Parameter_Gyro_P                                  fc.o
Parameter_Hoehe_ACC_Wirkung                       fc.o
Parameter_Hoehe_P                                 fc.o
Parameter_Hoehe_TiltCompensation                  fc.o
Parameter_HoehenSchalter                          fc.o
                                                  hottmenu.o
Parameter_I_Faktor                                fc.o
Parameter_J16Bitmask                              fc.o
Parameter_J16Timing                               led.o
                                                  fc.o
Parameter_J17Bitmask                              fc.o
Parameter_J17Timing                               led.o
                                                  fc.o
Parameter_KompassWirkung                          fc.o
                                                  spi.o
Parameter_LoopGasLimit                            fc.o
Parameter_Luftdruck_D                             fc.o
Parameter_MaximumAltitude                         spi.o
                                                  fc.o
Parameter_NaviGpsA                                fc.o
Parameter_NaviGpsD                                fc.o
Parameter_NaviGpsGain                             fc.o
Parameter_NaviGpsI                                fc.o
Parameter_NaviGpsP                                fc.o
Parameter_NaviSpeedCompensation                   fc.o
Parameter_NaviWindCorrection                      fc.o
Parameter_NickControl                             fc.o
Parameter_Servo3                                  fc.o
                                                  timer0.o
Parameter_Servo4                                  fc.o
                                                  timer0.o
Parameter_Servo5                                  fc.o
                                                  timer0.o
Parameter_ServoNickComp                           fc.o
                                                  timer0.o
Parameter_ServoNickControl                        fc.o
                                                  hottmenu.o
                                                  spi.o
                                                  menu.o
                                                  timer0.o
Parameter_ServoRollComp                           fc.o
                                                  timer0.o
Parameter_ServoRollControl                        fc.o
                                                  spi.o
                                                  timer0.o
Parameter_UserParam1                              fc.o
                                                  spi.o
                                                  uart.o
Parameter_UserParam2                              fc.o
                                                  spi.o
                                                  uart.o
Parameter_UserParam3                              fc.o
                                                  spi.o
Parameter_UserParam4                              fc.o
                                                  spi.o
Parameter_UserParam5                              fc.o
                                                  hottmenu.o
                                                  jetimenu.o
                                                  spi.o
Parameter_UserParam6                              fc.o
                                                  spi.o
Parameter_UserParam7                              fc.o
                                                  spi.o
Parameter_UserParam8                              fc.o
                                                  spi.o
PcZugriff                                         uart.o
                                                  main.o
Piep                                              fc.o
                                                  uart.o
                                                  main.o
PlatinenVersion                                   main.o
                                                  libfc1284.a(libfc.o)
                                                  spi.o
                                                  fc.o
                                                  eeprom.o
                                                  menu.o
                                                  analog.o
                                                  uart.o
Poti                                              fc.o
                                                  hottmenu.o
                                                  spi.o
                                                  menu.o
PrintLine                                         main.o
                                                  libfc1284.a(libfc.o)
                                                  eeprom.o
ProcessMlinkData                                  M-Link.o
                                                  main.o
ProcessSBus                                       sbus.o
                                                  main.o
RAM_Checksum                                      eeprom.o
                                                  twimaster.o
ReadBlSize                                        twimaster.o
                                                  main.o
Rec_ACT_DSL                                       libfc1284.a(libfc.o)
Rec_HoTT                                          libfc1284.a(libfc.o)
Rec_Jeti                                          libfc1284.a(libfc.o)
Rec_PPM                                           libfc1284.a(libfc.o)
Rec_Spektrum                                      libfc1284.a(libfc.o)
Rec_USER                                          libfc1284.a(libfc.o)
ReceiverUpdateModeActive                          uart.o
                                                  libfc1284.a(libfc.o)
                                                  main.o
RedundantMotor                                    twimaster.o
RemainingPulse                                    timer0.o
RemoteKeys                                        menu.o
                                                  uart.o
RequiredMotors                                    hottmenu.o
                                                  jetimenu.o
                                                  twimaster.o
                                                  eeprom.o
                                                  menu.o
                                                  main.o
RohMesswertNick                                   fc.o
RohMesswertRoll                                   fc.o
RxDataLen                                         uart.o
RxdBuffer                                         libfc1284.a(libfc.o)
                                                  uart.o
SETTING                                           hottmenu.o
SIMULATION                                        hottmenu.o
SPITransferCompleted                              spi.o
SPI_Buffer                                        spi.o
SPI_BufferIndex                                   spi.o
SPI_ChkSum                                        spi.o
SPI_CommandCounter                                spi.o
SPI_CommandSequence                               spi.o
SPI_MasterInit                                    spi.o
                                                  main.o
SPI_RxBufferIndex                                 spi.o
SPI_RxDataValid                                   spi.o
SPI_StartTransmitPacket                           spi.o
                                                  fc.o
                                                  main.o
SPI_TX_Buffer                                     spi.o
SPI_TransmitByte                                  spi.o
                                                  fc.o
                                                  main.o
SbusParser                                        sbus.o
                                                  libfc1284.a(libfc.o)
SbusUartInit                                      sbus.o
                                                  libfc1284.a(libfc.o)
SendMotorData                                     fc.o
                                                  main.o
SendOutData                                       uart.o
SenderOkay                                        fc.o
                                                  libfc1284.a(libfc.o)
                                                  M-Link.o
                                                  sbus.o
                                                  Spektrum.o
                                                  led.o
                                                  spi.o
                                                  rc.o
                                                  menu.o
                                                  main.o
ServoActive                                       timer0.o
                                                  fc.o
                                                  uart.o
                                                  main.o
ServoFailsafeActive                               fc.o
                                                  timer0.o
                                                  main.o
ServoNickOffset                                   timer0.o
ServoNickValue                                    timer0.o
                                                  fc.o
                                                  menu.o
ServoRollOffset                                   timer0.o
ServoRollValue                                    timer0.o
SetActiveParamSet                                 eeprom.o
                                                  fc.o
SetDefaultParameter                               eeprom.o
                                                  uart.o
SetDelay                                          timer0.o
                                                  hottmenu.o
                                                  capacity.o
                                                  jetimenu.o
                                                  twimaster.o
                                                  uart.o
                                                  main.o
SetNeutral                                        fc.o
                                                  main.o
SetParamByte                                      eeprom.o
                                                  analog.o
                                                  main.o
SetParamWord                                      eeprom.o
                                                  fc.o
                                                  menu.o
ShowSettingNameTime                               hottmenu.o
                                                  jetimenu.o
                                                  fc.o
                                                  main.o
ShutterCounter                                    led.o
                                                  spi.o
                                                  fc.o
SinceV23                                          libfc1284.a(libfc.o)
SioTmp                                            uart.o
SollHoehe                                         fc.o
                                                  spi.o
                                                  menu.o
SpeakHoTT                                         hottmenu.o
                                                  spi.o
                                                  fc.o
                                                  twimaster.o
SpektrumParser                                    Spektrum.o
                                                  libfc1284.a(libfc.o)
SpektrumTimer                                     Spektrum.o
                                                  M-Link.o
                                                  sbus.o
                                                  timer0.o
SpektrumUartInit                                  Spektrum.o
                                                  libfc1284.a(libfc.o)
                                                  M-Link.o
StartLuftdruck                                    fc.o
                                                  analog.o
                                                  main.o
StartNeutralNick                                  fc.o
StartNeutralRoll                                  fc.o
StartTrigger                                      fc.o
StickGas                                          fc.o
StickGasHover                                     fc.o
StickGier                                         fc.o
                                                  main.o
StickNick                                         fc.o
                                                  main.o
StickRoll                                         fc.o
                                                  main.o
StoreNeutralToEeprom                              fc.o
                                                  hottmenu.o
                                                  jetimenu.o
                                                  menu.o
SucheLuftruckOffset                               analog.o
                                                  fc.o
                                                  main.o
SummeNick                                         fc.o
                                                  uart.o
SummeRoll                                         fc.o
                                                  uart.o
SummenHoehe                                       analog.o
                                                  libfc1284.a(libfc.o)
                                                  fc.o
TIMER2_Init                                       timer0.o
                                                  main.o
Timer3D                                           uart.o
Timer_Init                                        timer0.o
                                                  main.o
ToNC_Load_SingePoint                              hottmenu.o
                                                  jetimenu.o
                                                  spi.o
ToNC_Load_WP_List                                 hottmenu.o
                                                  jetimenu.o
                                                  spi.o
ToNC_SpeakHoTT                                    hottmenu.o
                                                  spi.o
ToNC_Store_SingePoint                             hottmenu.o
                                                  jetimenu.o
                                                  spi.o
ToNaviCtrl                                        libfc1284.a(libfc.o)
                                                  spi.o
                                                  fc.o
                                                  uart.o
TrichterFlug                                      fc.o
TrimNick                                          fc.o
TrimRoll                                          fc.o
TxdBuffer                                         uart.o
UART_Init                                         uart.o
                                                  main.o
UBat                                              analog.o
                                                  jeti_ex.o
                                                  hottmenu.o
                                                  capacity.o
                                                  jetimenu.o
                                                  spi.o
                                                  fc.o
                                                  menu.o
                                                  main.o
UNDERVOLTAGE                                      hottmenu.o
USART1_EX_TxBuffer                                libfc1284.a(libfc.o)
UebertragungAbgeschlossen                         uart.o
Umschlag180Nick                                   fc.o
                                                  uart.o
Umschlag180Roll                                   fc.o
                                                  uart.o
UpdateMotor                                       timer0.o
                                                  fc.o
                                                  main.o
UpdateSPI_Buffer                                  spi.o
User_RX_Parser                                    user_receiver.o
                                                  libfc1284.a(libfc.o)
User_Receiver_Init                                user_receiver.o
                                                  libfc1284.a(libfc.o)
Variance                                          fc.o
VarioCharacter                                    fc.o
                                                  jeti_ex.o
                                                  hottmenu.o
                                                  jetimenu.o
                                                  spi.o
VarioMeter                                        analog.o
                                                  libfc1284.a(libfc.o)
                                                  jeti_ex.o
                                                  hottmenu.o
                                                  fc.o
VarioPacket                                       libfc1284.a(libfc.o)
                                                  hottmenu.o
VersionInfo                                       led.o
                                                  spi.o
                                                  fc.o
                                                  menu.o
                                                  analog.o
                                                  uart.o
                                                  main.o
WPL_Name                                          hottmenu.o
                                                  jetimenu.o
WaypointTrimming                                  fc.o
WinkelOut                                         spi.o
                                                  fc.o
                                                  uart.o
                                                  main.o
XSasC2389ufwejiCjuz32                             libfc1284.a(libfc.o)
ZaehlMessungen                                    analog.o
                                                  fc.o
__addsf3                                          C:/WinAVR/bin/../lib/gcc/avr/3.4.6/../../../../avr/lib/avr5\libm.a(addsf3.o)
                                                  fc.o
__addsf3x                                         C:/WinAVR/bin/../lib/gcc/avr/3.4.6/../../../../avr/lib/avr5\libm.a(addsf3x.o)
                                                  C:/WinAVR/bin/../lib/gcc/avr/3.4.6/../../../../avr/lib/avr5\libm.a(addsf3.o)
__bad_interrupt                                   C:/WinAVR/bin/../lib/gcc/avr/3.4.6/../../../../avr/lib/avr5/crtm1284p.o
__bss_end                                         C:/WinAVR/lib/gcc/avr/3.4.6/avr5\libgcc.a(_clear_bss.o)
__bss_start                                       C:/WinAVR/lib/gcc/avr/3.4.6/avr5\libgcc.a(_clear_bss.o)
__data_end                                        C:/WinAVR/bin/../lib/gcc/avr/3.4.6/../../../../avr/lib/avr5/crtm1284p.o
__data_load_start                                 C:/WinAVR/bin/../lib/gcc/avr/3.4.6/../../../../avr/lib/avr5/crtm1284p.o
__data_start                                      C:/WinAVR/bin/../lib/gcc/avr/3.4.6/../../../../avr/lib/avr5/crtm1284p.o
__divmodhi4                                       C:/WinAVR/lib/gcc/avr/3.4.6/avr5\libgcc.a(_divmodhi4.o)
                                                  libfc1284.a(libfc.o)
                                                  sbus.o
                                                  hottmenu.o
                                                  jetimenu.o
                                                  mymath.o
                                                  Spektrum.o
                                                  spi.o
                                                  fc.o
                                                  rc.o
                                                  menu.o
                                                  timer0.o
                                                  main.o
__divmodsi4                                       C:/WinAVR/lib/gcc/avr/3.4.6/avr5\libgcc.a(_divmodsi4.o)
                                                  jeti_ex.o
                                                  hottmenu.o
                                                  jetimenu.o
                                                  spi.o
                                                  fc.o
                                                  menu.o
                                                  analog.o
                                                  timer0.o
                                                  uart.o
__do_clear_bss                                    C:/WinAVR/lib/gcc/avr/3.4.6/avr5\libgcc.a(_clear_bss.o)
                                                  C:/WinAVR/bin/../lib/gcc/avr/3.4.6/../../../../avr/lib/avr5\libc.a(eewr_word.o)
                                                  C:/WinAVR/bin/../lib/gcc/avr/3.4.6/../../../../avr/lib/avr5\libc.a(eewr_block.o)
                                                  C:/WinAVR/bin/../lib/gcc/avr/3.4.6/../../../../avr/lib/avr5\libc.a(eerd_word.o)
                                                  C:/WinAVR/bin/../lib/gcc/avr/3.4.6/../../../../avr/lib/avr5\libc.a(eerd_block.o)
                                                  libfc1284.a(libfc.o)
                                                  jeti_ex.o
                                                  M-Link.o
                                                  user_receiver.o
                                                  sbus.o
                                                  hottmenu.o
                                                  debug.o
                                                  capacity.o
                                                  jetimenu.o
                                                  mymath.o
                                                  Spektrum.o
                                                  led.o
                                                  spi.o
                                                  GPS.o
                                                  fc.o
                                                  rc.o
                                                  twimaster.o
                                                  eeprom.o
                                                  menu.o
                                                  analog.o
                                                  timer0.o
                                                  uart.o
                                                  main.o
__do_copy_data                                    C:/WinAVR/bin/../lib/gcc/avr/3.4.6/../../../../avr/lib/avr5/crtm1284p.o
                                                  C:/WinAVR/bin/../lib/gcc/avr/3.4.6/../../../../avr/lib/avr5\libc.a(eewr_word.o)
                                                  C:/WinAVR/bin/../lib/gcc/avr/3.4.6/../../../../avr/lib/avr5\libc.a(eewr_block.o)
                                                  C:/WinAVR/bin/../lib/gcc/avr/3.4.6/../../../../avr/lib/avr5\libc.a(eerd_word.o)
                                                  C:/WinAVR/bin/../lib/gcc/avr/3.4.6/../../../../avr/lib/avr5\libc.a(eerd_block.o)
                                                  libfc1284.a(libfc.o)
                                                  jeti_ex.o
                                                  M-Link.o
                                                  user_receiver.o
                                                  sbus.o
                                                  hottmenu.o
                                                  debug.o
                                                  capacity.o
                                                  jetimenu.o
                                                  mymath.o
                                                  Spektrum.o
                                                  led.o
                                                  spi.o
                                                  GPS.o
                                                  fc.o
                                                  rc.o
                                                  twimaster.o
                                                  eeprom.o
                                                  menu.o
                                                  analog.o
                                                  timer0.o
                                                  uart.o
                                                  main.o
__eerd_block                                      C:/WinAVR/bin/../lib/gcc/avr/3.4.6/../../../../avr/lib/avr5\libc.a(eerd_block.o)
                                                  eeprom.o
__eerd_word                                       C:/WinAVR/bin/../lib/gcc/avr/3.4.6/../../../../avr/lib/avr5\libc.a(eerd_word.o)
                                                  eeprom.o
__eewr_block                                      C:/WinAVR/bin/../lib/gcc/avr/3.4.6/../../../../avr/lib/avr5\libc.a(eewr_block.o)
                                                  eeprom.o
__eewr_word                                       C:/WinAVR/bin/../lib/gcc/avr/3.4.6/../../../../avr/lib/avr5\libc.a(eewr_word.o)
                                                  eeprom.o
__epilogue_restores__                             C:/WinAVR/lib/gcc/avr/3.4.6/avr5\libgcc.a(_epilogue.o)
                                                  C:/WinAVR/bin/../lib/gcc/avr/3.4.6/../../../../avr/lib/avr5\libc.a(eewr_block.o)
                                                  C:/WinAVR/bin/../lib/gcc/avr/3.4.6/../../../../avr/lib/avr5\libc.a(eerd_block.o)
                                                  libfc1284.a(libfc.o)
                                                  sbus.o
                                                  hottmenu.o
                                                  capacity.o
                                                  jetimenu.o
                                                  Spektrum.o
                                                  spi.o
                                                  fc.o
                                                  timer0.o
                                                  uart.o
__fixunssfsi                                      C:/WinAVR/bin/../lib/gcc/avr/3.4.6/../../../../avr/lib/avr5\libm.a(fixunssfsi.o)
                                                  fc.o
__floatsisf                                       C:/WinAVR/bin/../lib/gcc/avr/3.4.6/../../../../avr/lib/avr5\libm.a(floatsisf.o)
                                                  fc.o
__floatunsisf                                     C:/WinAVR/bin/../lib/gcc/avr/3.4.6/../../../../avr/lib/avr5\libm.a(floatsisf.o)
__fp_inf                                          C:/WinAVR/bin/../lib/gcc/avr/3.4.6/../../../../avr/lib/avr5\libm.a(fp_inf.o)
                                                  C:/WinAVR/bin/../lib/gcc/avr/3.4.6/../../../../avr/lib/avr5\libm.a(addsf3x.o)
__fp_nan                                          C:/WinAVR/bin/../lib/gcc/avr/3.4.6/../../../../avr/lib/avr5\libm.a(fp_nan.o)
                                                  C:/WinAVR/bin/../lib/gcc/avr/3.4.6/../../../../avr/lib/avr5\libm.a(addsf3x.o)
__fp_pscA                                         C:/WinAVR/bin/../lib/gcc/avr/3.4.6/../../../../avr/lib/avr5\libm.a(fp_pscA.o)
                                                  C:/WinAVR/bin/../lib/gcc/avr/3.4.6/../../../../avr/lib/avr5\libm.a(addsf3x.o)
__fp_pscB                                         C:/WinAVR/bin/../lib/gcc/avr/3.4.6/../../../../avr/lib/avr5\libm.a(fp_pscB.o)
                                                  C:/WinAVR/bin/../lib/gcc/avr/3.4.6/../../../../avr/lib/avr5\libm.a(addsf3x.o)
__fp_round                                        C:/WinAVR/bin/../lib/gcc/avr/3.4.6/../../../../avr/lib/avr5\libm.a(fp_round.o)
                                                  C:/WinAVR/bin/../lib/gcc/avr/3.4.6/../../../../avr/lib/avr5\libm.a(addsf3.o)
__fp_split3                                       C:/WinAVR/bin/../lib/gcc/avr/3.4.6/../../../../avr/lib/avr5\libm.a(fp_split3.o)
                                                  C:/WinAVR/bin/../lib/gcc/avr/3.4.6/../../../../avr/lib/avr5\libm.a(addsf3x.o)
__fp_splitA                                       C:/WinAVR/bin/../lib/gcc/avr/3.4.6/../../../../avr/lib/avr5\libm.a(fp_split3.o)
                                                  C:/WinAVR/bin/../lib/gcc/avr/3.4.6/../../../../avr/lib/avr5\libm.a(fixunssfsi.o)
__fp_szero                                        C:/WinAVR/bin/../lib/gcc/avr/3.4.6/../../../../avr/lib/avr5\libm.a(fp_zero.o)
__fp_zero                                         C:/WinAVR/bin/../lib/gcc/avr/3.4.6/../../../../avr/lib/avr5\libm.a(fp_zero.o)
                                                  C:/WinAVR/bin/../lib/gcc/avr/3.4.6/../../../../avr/lib/avr5\libm.a(fixunssfsi.o)
                                                  C:/WinAVR/bin/../lib/gcc/avr/3.4.6/../../../../avr/lib/avr5\libm.a(addsf3x.o)
__heap_end                                        C:/WinAVR/bin/../lib/gcc/avr/3.4.6/../../../../avr/lib/avr5/crtm1284p.o
__init                                            C:/WinAVR/bin/../lib/gcc/avr/3.4.6/../../../../avr/lib/avr5/crtm1284p.o
__mulsi3                                          C:/WinAVR/lib/gcc/avr/3.4.6/avr5\libgcc.a(_mulsi3.o)
                                                  libfc1284.a(libfc.o)
                                                  fc.o
                                                  analog.o
                                                  timer0.o
                                                  uart.o
__prologue_saves__                                C:/WinAVR/lib/gcc/avr/3.4.6/avr5\libgcc.a(_prologue.o)
                                                  C:/WinAVR/bin/../lib/gcc/avr/3.4.6/../../../../avr/lib/avr5\libc.a(eewr_block.o)
                                                  C:/WinAVR/bin/../lib/gcc/avr/3.4.6/../../../../avr/lib/avr5\libc.a(eerd_block.o)
                                                  libfc1284.a(libfc.o)
                                                  sbus.o
                                                  capacity.o
                                                  fc.o
                                                  uart.o
__stack                                           C:/WinAVR/bin/../lib/gcc/avr/3.4.6/../../../../avr/lib/avr5/crtm1284p.o
                                                  main.o
__subsf3                                          C:/WinAVR/bin/../lib/gcc/avr/3.4.6/../../../../avr/lib/avr5\libm.a(addsf3.o)
__tablejump2__                                    C:/WinAVR/lib/gcc/avr/3.4.6/avr5\libgcc.a(_tablejump.o)
                                                  libfc1284.a(libfc.o)
                                                  hottmenu.o
                                                  menu.o
                                                  analog.o
__tablejump__                                     C:/WinAVR/lib/gcc/avr/3.4.6/avr5\libgcc.a(_tablejump.o)
__udivmodhi4                                      C:/WinAVR/lib/gcc/avr/3.4.6/avr5\libgcc.a(_udivmodhi4.o)
                                                  C:/WinAVR/lib/gcc/avr/3.4.6/avr5\libgcc.a(_divmodhi4.o)
                                                  libfc1284.a(libfc.o)
                                                  jeti_ex.o
                                                  M-Link.o
                                                  hottmenu.o
                                                  capacity.o
                                                  jetimenu.o
                                                  fc.o
                                                  menu.o
                                                  analog.o
                                                  timer0.o
                                                  main.o
__udivmodqi4                                      C:/WinAVR/lib/gcc/avr/3.4.6/avr5\libgcc.a(_udivmodqi4.o)
                                                  libfc1284.a(libfc.o)
                                                  hottmenu.o
                                                  fc.o
                                                  menu.o
                                                  main.o
__udivmodsi4                                      C:/WinAVR/lib/gcc/avr/3.4.6/avr5\libgcc.a(_udivmodsi4.o)
                                                  C:/WinAVR/lib/gcc/avr/3.4.6/avr5\libgcc.a(_divmodsi4.o)
                                                  libfc1284.a(libfc.o)
__vector_1                                        C:/WinAVR/bin/../lib/gcc/avr/3.4.6/../../../../avr/lib/avr5/crtm1284p.o
__vector_10                                       C:/WinAVR/bin/../lib/gcc/avr/3.4.6/../../../../avr/lib/avr5/crtm1284p.o
__vector_11                                       C:/WinAVR/bin/../lib/gcc/avr/3.4.6/../../../../avr/lib/avr5/crtm1284p.o
__vector_12                                       rc.o
                                                  C:/WinAVR/bin/../lib/gcc/avr/3.4.6/../../../../avr/lib/avr5/crtm1284p.o
__vector_13                                       C:/WinAVR/bin/../lib/gcc/avr/3.4.6/../../../../avr/lib/avr5/crtm1284p.o
__vector_14                                       C:/WinAVR/bin/../lib/gcc/avr/3.4.6/../../../../avr/lib/avr5/crtm1284p.o
__vector_15                                       C:/WinAVR/bin/../lib/gcc/avr/3.4.6/../../../../avr/lib/avr5/crtm1284p.o
__vector_16                                       C:/WinAVR/bin/../lib/gcc/avr/3.4.6/../../../../avr/lib/avr5/crtm1284p.o
__vector_17                                       C:/WinAVR/bin/../lib/gcc/avr/3.4.6/../../../../avr/lib/avr5/crtm1284p.o
__vector_18                                       timer0.o
                                                  C:/WinAVR/bin/../lib/gcc/avr/3.4.6/../../../../avr/lib/avr5/crtm1284p.o
__vector_19                                       C:/WinAVR/bin/../lib/gcc/avr/3.4.6/../../../../avr/lib/avr5/crtm1284p.o
__vector_2                                        C:/WinAVR/bin/../lib/gcc/avr/3.4.6/../../../../avr/lib/avr5/crtm1284p.o
__vector_20                                       uart.o
                                                  C:/WinAVR/bin/../lib/gcc/avr/3.4.6/../../../../avr/lib/avr5/crtm1284p.o
__vector_21                                       C:/WinAVR/bin/../lib/gcc/avr/3.4.6/../../../../avr/lib/avr5/crtm1284p.o
__vector_22                                       uart.o
                                                  C:/WinAVR/bin/../lib/gcc/avr/3.4.6/../../../../avr/lib/avr5/crtm1284p.o
__vector_23                                       C:/WinAVR/bin/../lib/gcc/avr/3.4.6/../../../../avr/lib/avr5/crtm1284p.o
__vector_24                                       analog.o
                                                  C:/WinAVR/bin/../lib/gcc/avr/3.4.6/../../../../avr/lib/avr5/crtm1284p.o
__vector_25                                       C:/WinAVR/bin/../lib/gcc/avr/3.4.6/../../../../avr/lib/avr5/crtm1284p.o
__vector_26                                       twimaster.o
                                                  C:/WinAVR/bin/../lib/gcc/avr/3.4.6/../../../../avr/lib/avr5/crtm1284p.o
__vector_27                                       C:/WinAVR/bin/../lib/gcc/avr/3.4.6/../../../../avr/lib/avr5/crtm1284p.o
__vector_28                                       libfc1284.a(libfc.o)
                                                  C:/WinAVR/bin/../lib/gcc/avr/3.4.6/../../../../avr/lib/avr5/crtm1284p.o
__vector_29                                       C:/WinAVR/bin/../lib/gcc/avr/3.4.6/../../../../avr/lib/avr5/crtm1284p.o
__vector_3                                        C:/WinAVR/bin/../lib/gcc/avr/3.4.6/../../../../avr/lib/avr5/crtm1284p.o
__vector_30                                       libfc1284.a(libfc.o)
                                                  C:/WinAVR/bin/../lib/gcc/avr/3.4.6/../../../../avr/lib/avr5/crtm1284p.o
__vector_31                                       C:/WinAVR/bin/../lib/gcc/avr/3.4.6/../../../../avr/lib/avr5/crtm1284p.o
__vector_32                                       C:/WinAVR/bin/../lib/gcc/avr/3.4.6/../../../../avr/lib/avr5/crtm1284p.o
__vector_33                                       C:/WinAVR/bin/../lib/gcc/avr/3.4.6/../../../../avr/lib/avr5/crtm1284p.o
__vector_34                                       C:/WinAVR/bin/../lib/gcc/avr/3.4.6/../../../../avr/lib/avr5/crtm1284p.o
__vector_4                                        C:/WinAVR/bin/../lib/gcc/avr/3.4.6/../../../../avr/lib/avr5/crtm1284p.o
__vector_5                                        C:/WinAVR/bin/../lib/gcc/avr/3.4.6/../../../../avr/lib/avr5/crtm1284p.o
__vector_6                                        C:/WinAVR/bin/../lib/gcc/avr/3.4.6/../../../../avr/lib/avr5/crtm1284p.o
__vector_7                                        C:/WinAVR/bin/../lib/gcc/avr/3.4.6/../../../../avr/lib/avr5/crtm1284p.o
__vector_8                                        C:/WinAVR/bin/../lib/gcc/avr/3.4.6/../../../../avr/lib/avr5/crtm1284p.o
__vector_9                                        timer0.o
                                                  C:/WinAVR/bin/../lib/gcc/avr/3.4.6/../../../../avr/lib/avr5/crtm1284p.o
__vector_default                                  C:/WinAVR/bin/../lib/gcc/avr/3.4.6/../../../../avr/lib/avr5/crtm1284p.o
__vectors                                         C:/WinAVR/bin/../lib/gcc/avr/3.4.6/../../../../avr/lib/avr5/crtm1284p.o
_div                                              C:/WinAVR/lib/gcc/avr/3.4.6/avr5\libgcc.a(_divmodhi4.o)
_exit                                             C:/WinAVR/lib/gcc/avr/3.4.6/avr5\libgcc.a(_exit.o)
_printf_P                                         libfc1284.a(libfc.o)
                                                  hottmenu.o
                                                  jetimenu.o
                                                  fc.o
                                                  eeprom.o
                                                  menu.o
                                                  analog.o
                                                  uart.o
                                                  main.o
a48784362857632195659                             libfc1284.a(libfc.o)
adad_HiSystems_GmbH_                              libfc1284.a(libfc.o)
awokdjwqdjcjuhcuweih                              libfc1284.a(libfc.o)
beeptime                                          timer0.o
                                                  spi.o
                                                  fc.o
                                                  main.o
c_cos_8192                                        mymath.o
                                                  fc.o
carefree_old                                      fc.o
cntKompass                                        timer0.o
crc8                                              libfc1284.a(libfc.o)
dac_channel                                       twimaster.o
exit                                              C:/WinAVR/lib/gcc/avr/3.4.6/avr5\libgcc.a(_exit.o)
                                                  C:/WinAVR/bin/../lib/gcc/avr/3.4.6/../../../../avr/lib/avr5/crtm1284p.o
f8jhreghreGerg45gE542                             libfc1284.a(libfc.o)
fdknerTjg5i83th589v44                             libfc1284.a(libfc.o)
fgfdogjWEti45e9tjh394                             libfc1284.a(libfc.o)
fgmjgnrtuth587th9rTrw                             libfc1284.a(libfc.o)
fij48zrhoih3498fhfo90                             libfc1284.a(libfc.o)
fojk48fj478fhw7fhw39                              libfc1284.a(libfc.o)
fomklkdtn89SFGrsgt9rf                             libfc1284.a(libfc.o)
h                                                 fc.o
ihypot                                            isqrt.o
                                                  fc.o
isqrt16                                           isqrt.o
isqrt32                                           isqrt.o
kf089uwjef89234hffhh                              libfc1284.a(libfc.o)
lkvgnfdgun57th38rgh84                             libfc1284.a(libfc.o)
m                                                 fc.o
main                                              main.o
                                                  C:/WinAVR/bin/../lib/gcc/avr/3.4.6/../../../../avr/lib/avr5/crtm1284p.o
md5                                               libfc1284.a(libfc.o)
memchr                                            C:/WinAVR/bin/../lib/gcc/avr/3.4.6/../../../../avr/lib/avr5\libc.a(memchr.o)
                                                  libfc1284.a(libfc.o)
memcpy                                            C:/WinAVR/bin/../lib/gcc/avr/3.4.6/../../../../avr/lib/avr5\libc.a(memcpy.o)
                                                  libfc1284.a(libfc.o)
memcpy_P                                          C:/WinAVR/bin/../lib/gcc/avr/3.4.6/../../../../avr/lib/avr5\libc.a(memcpy_P.o)
                                                  uart.o
modell_fliegt                                     fc.o
                                                  libfc1284.a(libfc.o)
                                                  analog.o
                                                  main.o
motor_read                                        twimaster.o
                                                  main.o
motor_write                                       twimaster.o
ndfcvbghs                                         libfc1284.a(libfc.o)
njkvnfuhgbuzrgezgf483                             libfc1284.a(libfc.o)
pRxData                                           uart.o
pgm_sinlookup                                     mymath.o
rc_sum_init                                       rc.o
                                                  main.o
s                                                 fc.o
sBusBuffer                                        sbus.o
s_update                                          Spektrum.o
                                                  M-Link.o
sintab                                            fc.o
                                                  timer0.o
tim_main                                          timer0.o
tmpChannels                                       rc.o
tmp_motorwert                                     fc.o
twi_state                                         twimaster.o
                                                  fc.o
uart_putchar                                      uart.o
                                                  libfc1284.a(libfc.o)
                                                  fc.o
                                                  eeprom.o
                                                  analog.o
                                                  main.o
update_crc                                        libfc1284.a(libfc.o)
update_timer                                      capacity.o
weiuncefcnsavsgvghjc                              libfc1284.a(libfc.o)
wqqeRT45jth8g758735h4                             libfc1284.a(libfc.o)
